{
  "contractName": "Lottery",
  "abi": [
    {
      "inputs": [
        {
          "internalType": "uint64",
          "name": "subscriptionId",
          "type": "uint64"
        }
      ],
      "stateMutability": "nonpayable",
      "type": "constructor"
    },
    {
      "inputs": [
        {
          "internalType": "address",
          "name": "have",
          "type": "address"
        },
        {
          "internalType": "address",
          "name": "want",
          "type": "address"
        }
      ],
      "name": "OnlyCoordinatorCanFulfill",
      "type": "error"
    },
    {
      "inputs": [
        {
          "internalType": "uint256",
          "name": "",
          "type": "uint256"
        }
      ],
      "name": "lotteryHistory",
      "outputs": [
        {
          "internalType": "address payable",
          "name": "",
          "type": "address"
        }
      ],
      "stateMutability": "view",
      "type": "function",
      "constant": true
    },
    {
      "inputs": [],
      "name": "lotteryId",
      "outputs": [
        {
          "internalType": "uint256",
          "name": "",
          "type": "uint256"
        }
      ],
      "stateMutability": "view",
      "type": "function",
      "constant": true
    },
    {
      "inputs": [
        {
          "internalType": "uint256",
          "name": "",
          "type": "uint256"
        }
      ],
      "name": "players",
      "outputs": [
        {
          "internalType": "address payable",
          "name": "",
          "type": "address"
        }
      ],
      "stateMutability": "view",
      "type": "function",
      "constant": true
    },
    {
      "inputs": [
        {
          "internalType": "uint256",
          "name": "requestId",
          "type": "uint256"
        },
        {
          "internalType": "uint256[]",
          "name": "randomWords",
          "type": "uint256[]"
        }
      ],
      "name": "rawFulfillRandomWords",
      "outputs": [],
      "stateMutability": "nonpayable",
      "type": "function"
    },
    {
      "inputs": [
        {
          "internalType": "uint256",
          "name": "",
          "type": "uint256"
        }
      ],
      "name": "s_randomWords",
      "outputs": [
        {
          "internalType": "uint256",
          "name": "",
          "type": "uint256"
        }
      ],
      "stateMutability": "view",
      "type": "function",
      "constant": true
    },
    {
      "inputs": [],
      "name": "s_requestId",
      "outputs": [
        {
          "internalType": "uint256",
          "name": "",
          "type": "uint256"
        }
      ],
      "stateMutability": "view",
      "type": "function",
      "constant": true
    },
    {
      "inputs": [],
      "name": "requestRandomWords",
      "outputs": [],
      "stateMutability": "nonpayable",
      "type": "function"
    },
    {
      "inputs": [],
      "name": "getRandomNumber",
      "outputs": [
        {
          "internalType": "uint256",
          "name": "",
          "type": "uint256"
        }
      ],
      "stateMutability": "nonpayable",
      "type": "function"
    },
    {
      "inputs": [
        {
          "internalType": "uint256",
          "name": "lottery",
          "type": "uint256"
        }
      ],
      "name": "getWinnerByLottery",
      "outputs": [
        {
          "internalType": "address payable",
          "name": "",
          "type": "address"
        }
      ],
      "stateMutability": "view",
      "type": "function",
      "constant": true
    },
    {
      "inputs": [],
      "name": "getBalance",
      "outputs": [
        {
          "internalType": "uint256",
          "name": "",
          "type": "uint256"
        }
      ],
      "stateMutability": "view",
      "type": "function",
      "constant": true
    },
    {
      "inputs": [],
      "name": "getPlayers",
      "outputs": [
        {
          "internalType": "address payable[]",
          "name": "",
          "type": "address[]"
        }
      ],
      "stateMutability": "view",
      "type": "function",
      "constant": true
    },
    {
      "inputs": [],
      "name": "enter",
      "outputs": [],
      "stateMutability": "payable",
      "type": "function",
      "payable": true
    },
    {
      "inputs": [],
      "name": "pickWinner",
      "outputs": [],
      "stateMutability": "nonpayable",
      "type": "function"
    }
  ],
  "bytecode": "0x60a0604052736168499c0cffcacd319c818142124b7a15e857ab600160006101000a81548173ffffffffffffffffffffffffffffffffffffffff021916908373ffffffffffffffffffffffffffffffffffffffff1602179055507fd89b2bf150e3b9e13446986e571fb9cab24b13cea0a43ea20a6049a85cc807cc60001b600255620186a0600360006101000a81548163ffffffff021916908363ffffffff16021790555060038060046101000a81548161ffff021916908361ffff1602179055506002600360066101000a81548163ffffffff021916908363ffffffff160217905550348015620000f057600080fd5b506040516200146838038062001468833981810160405281019062000116919062000293565b600160009054906101000a900473ffffffffffffffffffffffffffffffffffffffff168073ffffffffffffffffffffffffffffffffffffffff1660808173ffffffffffffffffffffffffffffffffffffffff168152505050600160009054906101000a900473ffffffffffffffffffffffffffffffffffffffff166000806101000a81548173ffffffffffffffffffffffffffffffffffffffff021916908373ffffffffffffffffffffffffffffffffffffffff16021790555033600660006101000a81548173ffffffffffffffffffffffffffffffffffffffff021916908373ffffffffffffffffffffffffffffffffffffffff16021790555080600060146101000a81548167ffffffffffffffff021916908367ffffffffffffffff160217905550600160088190555050620002c5565b600080fd5b600067ffffffffffffffff82169050919050565b6200026d816200024e565b81146200027957600080fd5b50565b6000815190506200028d8162000262565b92915050565b600060208284031215620002ac57620002ab62000249565b5b6000620002bc848285016200027c565b91505092915050565b608051611180620002e8600039600081816102fd015261035101526111806000f3fe6080604052600436106100c25760003560e01c8063dbdff2c11161007f578063e89e106a11610059578063e89e106a14610244578063e97dcb621461026f578063f6eaffc814610279578063f71d96cb146102b6576100c2565b8063dbdff2c1146101d7578063e0c8628914610202578063e580f47b14610219576100c2565b806312065fe0146100c75780631fe543e3146100f2578063281d098d1461011b5780635d495aea146101585780636d6fe2301461016f5780638b5b9ccc146101ac575b600080fd5b3480156100d357600080fd5b506100dc6102f3565b6040516100e99190610b73565b60405180910390f35b3480156100fe57600080fd5b5061011960048036038101906101149190610d27565b6102fb565b005b34801561012757600080fd5b50610142600480360381019061013d9190610d83565b6103bb565b60405161014f9190610df1565b60405180910390f35b34801561016457600080fd5b5061016d6103f8565b005b34801561017b57600080fd5b5061019660048036038101906101919190610d83565b610600565b6040516101a39190610df1565b60405180910390f35b3480156101b857600080fd5b506101c1610633565b6040516101ce9190610eca565b60405180910390f35b3480156101e357600080fd5b506101ec6106c1565b6040516101f99190610b73565b60405180910390f35b34801561020e57600080fd5b50610217610812565b005b34801561022557600080fd5b5061022e610964565b60405161023b9190610b73565b60405180910390f35b34801561025057600080fd5b5061025961096a565b6040516102669190610b73565b60405180910390f35b610277610970565b005b34801561028557600080fd5b506102a0600480360381019061029b9190610d83565b6109e8565b6040516102ad9190610b73565b60405180910390f35b3480156102c257600080fd5b506102dd60048036038101906102d89190610d83565b610a0c565b6040516102ea9190610df1565b60405180910390f35b600047905090565b7f000000000000000000000000000000000000000000000000000000000000000073ffffffffffffffffffffffffffffffffffffffff163373ffffffffffffffffffffffffffffffffffffffff16146103ad57337f00000000000000000000000000000000000000000000000000000000000000006040517f1cf993f40000000000000000000000000000000000000000000000000000000081526004016103a4929190610f0d565b60405180910390fd5b6103b78282610a4b565b5050565b60006009600083815260200190815260200160002060009054906101000a900473ffffffffffffffffffffffffffffffffffffffff169050919050565b600660009054906101000a900473ffffffffffffffffffffffffffffffffffffffff1673ffffffffffffffffffffffffffffffffffffffff163373ffffffffffffffffffffffffffffffffffffffff161461045257600080fd5b60006007805490506104626106c1565b61046c9190610f65565b90506007818154811061048257610481610f96565b5b9060005260206000200160009054906101000a900473ffffffffffffffffffffffffffffffffffffffff1673ffffffffffffffffffffffffffffffffffffffff166108fc479081150290604051600060405180830381858888f193505050501580156104f2573d6000803e3d6000fd5b506007818154811061050757610506610f96565b5b9060005260206000200160009054906101000a900473ffffffffffffffffffffffffffffffffffffffff1660096000600854815260200190815260200160002060006101000a81548173ffffffffffffffffffffffffffffffffffffffff021916908373ffffffffffffffffffffffffffffffffffffffff1602179055506008600081548092919061059890610ff4565b9190505550600067ffffffffffffffff8111156105b8576105b7610be4565b5b6040519080825280602002602001820160405280156105e65781602001602082028036833780820191505090505b50600790805190602001906105fc929190610a66565b5050565b60096020528060005260406000206000915054906101000a900473ffffffffffffffffffffffffffffffffffffffff1681565b606060078054806020026020016040519081016040528092919081815260200182805480156106b757602002820191906000526020600020905b8160009054906101000a900473ffffffffffffffffffffffffffffffffffffffff1673ffffffffffffffffffffffffffffffffffffffff168152602001906001019080831161066d575b5050505050905090565b6000600660009054906101000a900473ffffffffffffffffffffffffffffffffffffffff1673ffffffffffffffffffffffffffffffffffffffff163373ffffffffffffffffffffffffffffffffffffffff161461071d57600080fd5b60008054906101000a900473ffffffffffffffffffffffffffffffffffffffff1673ffffffffffffffffffffffffffffffffffffffff16635d3b1d30600254600060149054906101000a900467ffffffffffffffff16600360049054906101000a900461ffff16600360009054906101000a900463ffffffff16600360069054906101000a900463ffffffff166040518663ffffffff1660e01b81526004016107ca9594939291906110b5565b6020604051808303816000875af11580156107e9573d6000803e3d6000fd5b505050506040513d601f19601f8201168201806040525081019061080d919061111d565b905090565b600660009054906101000a900473ffffffffffffffffffffffffffffffffffffffff1673ffffffffffffffffffffffffffffffffffffffff163373ffffffffffffffffffffffffffffffffffffffff161461086c57600080fd5b60008054906101000a900473ffffffffffffffffffffffffffffffffffffffff1673ffffffffffffffffffffffffffffffffffffffff16635d3b1d30600254600060149054906101000a900467ffffffffffffffff16600360049054906101000a900461ffff16600360009054906101000a900463ffffffff16600360069054906101000a900463ffffffff166040518663ffffffff1660e01b81526004016109199594939291906110b5565b6020604051808303816000875af1158015610938573d6000803e3d6000fd5b505050506040513d601f19601f8201168201806040525081019061095c919061111d565b600581905550565b60085481565b60055481565b662386f26fc10000341161098357600080fd5b6007339080600181540180825580915050600190039060005260206000200160009091909190916101000a81548173ffffffffffffffffffffffffffffffffffffffff021916908373ffffffffffffffffffffffffffffffffffffffff160217905550565b600481815481106109f857600080fd5b906000526020600020016000915090505481565b60078181548110610a1c57600080fd5b906000526020600020016000915054906101000a900473ffffffffffffffffffffffffffffffffffffffff1681565b8060049080519060200190610a61929190610af0565b505050565b828054828255906000526020600020908101928215610adf579160200282015b82811115610ade5782518260006101000a81548173ffffffffffffffffffffffffffffffffffffffff021916908373ffffffffffffffffffffffffffffffffffffffff16021790555091602001919060010190610a86565b5b509050610aec9190610b3d565b5090565b828054828255906000526020600020908101928215610b2c579160200282015b82811115610b2b578251825591602001919060010190610b10565b5b509050610b399190610b3d565b5090565b5b80821115610b56576000816000905550600101610b3e565b5090565b6000819050919050565b610b6d81610b5a565b82525050565b6000602082019050610b886000830184610b64565b92915050565b6000604051905090565b600080fd5b600080fd5b610bab81610b5a565b8114610bb657600080fd5b50565b600081359050610bc881610ba2565b92915050565b600080fd5b6000601f19601f8301169050919050565b7f4e487b7100000000000000000000000000000000000000000000000000000000600052604160045260246000fd5b610c1c82610bd3565b810181811067ffffffffffffffff82111715610c3b57610c3a610be4565b5b80604052505050565b6000610c4e610b8e565b9050610c5a8282610c13565b919050565b600067ffffffffffffffff821115610c7a57610c79610be4565b5b602082029050602081019050919050565b600080fd5b6000610ca3610c9e84610c5f565b610c44565b90508083825260208201905060208402830185811115610cc657610cc5610c8b565b5b835b81811015610cef5780610cdb8882610bb9565b845260208401935050602081019050610cc8565b5050509392505050565b600082601f830112610d0e57610d0d610bce565b5b8135610d1e848260208601610c90565b91505092915050565b60008060408385031215610d3e57610d3d610b98565b5b6000610d4c85828601610bb9565b925050602083013567ffffffffffffffff811115610d6d57610d6c610b9d565b5b610d7985828601610cf9565b9150509250929050565b600060208284031215610d9957610d98610b98565b5b6000610da784828501610bb9565b91505092915050565b600073ffffffffffffffffffffffffffffffffffffffff82169050919050565b6000610ddb82610db0565b9050919050565b610deb81610dd0565b82525050565b6000602082019050610e066000830184610de2565b92915050565b600081519050919050565b600082825260208201905092915050565b6000819050602082019050919050565b610e4181610dd0565b82525050565b6000610e538383610e38565b60208301905092915050565b6000602082019050919050565b6000610e7782610e0c565b610e818185610e17565b9350610e8c83610e28565b8060005b83811015610ebd578151610ea48882610e47565b9750610eaf83610e5f565b925050600181019050610e90565b5085935050505092915050565b60006020820190508181036000830152610ee48184610e6c565b905092915050565b6000610ef782610db0565b9050919050565b610f0781610eec565b82525050565b6000604082019050610f226000830185610efe565b610f2f6020830184610efe565b9392505050565b7f4e487b7100000000000000000000000000000000000000000000000000000000600052601260045260246000fd5b6000610f7082610b5a565b9150610f7b83610b5a565b925082610f8b57610f8a610f36565b5b828206905092915050565b7f4e487b7100000000000000000000000000000000000000000000000000000000600052603260045260246000fd5b7f4e487b7100000000000000000000000000000000000000000000000000000000600052601160045260246000fd5b6000610fff82610b5a565b91507fffffffffffffffffffffffffffffffffffffffffffffffffffffffffffffffff82141561103257611031610fc5565b5b600182019050919050565b6000819050919050565b6110508161103d565b82525050565b600067ffffffffffffffff82169050919050565b61107381611056565b82525050565b600061ffff82169050919050565b61109081611079565b82525050565b600063ffffffff82169050919050565b6110af81611096565b82525050565b600060a0820190506110ca6000830188611047565b6110d7602083018761106a565b6110e46040830186611087565b6110f160608301856110a6565b6110fe60808301846110a6565b9695505050505050565b60008151905061111781610ba2565b92915050565b60006020828403121561113357611132610b98565b5b600061114184828501611108565b9150509291505056fea26469706673582212205d6f8d74ad06ed4b11a5f24700cd65551aea49c11c5dd51b4d3bc3bb782dd06f64736f6c634300080b0033",
  "immutableReferences": {
    "10": [
      {
        "length": 32,
        "start": 765
      },
      {
        "length": 32,
        "start": 849
      }
    ]
  },
  "source": "// SPDX-License-Identifier: MIT\n// An example of a consumer contract that relies on a subscription for funding.\npragma solidity ^0.8.11;\n\nimport \"@chainlink/contracts/src/v0.8/interfaces/VRFCoordinatorV2Interface.sol\";\nimport \"@chainlink/contracts/src/v0.8/VRFConsumerBaseV2.sol\";\n\ncontract Lottery is VRFConsumerBaseV2 {\n  VRFCoordinatorV2Interface COORDINATOR;\n\n  // Your subscription ID.\n  uint64 s_subscriptionId;\n\n  // Rinkeby coordinator. For other networks,\n  // see https://docs.chain.link/docs/vrf-contracts/#configurations\n  address vrfCoordinator = 0x6168499c0cFfCaCD319c818142124B7A15E857ab;\n\n  // The gas lane to use, which specifies the maximum gas price to bump to.\n  // For a list of available gas lanes on each network,\n  // see https://docs.chain.link/docs/vrf-contracts/#configurations\n  bytes32 keyHash = 0xd89b2bf150e3b9e13446986e571fb9cab24b13cea0a43ea20a6049a85cc807cc;\n\n  // Depends on the number of requested values that you want sent to the\n  // fulfillRandomWords() function. Storing each word costs about 20,000 gas,\n  // so 100,000 is a safe default for this example contract. Test and adjust\n  // this limit based on the network that you select, the size of the request,\n  // and the processing of the callback request in the fulfillRandomWords()\n  // function.\n  uint32 callbackGasLimit = 100000;\n\n  // The default is 3, but you can set this higher.\n  uint16 requestConfirmations = 3;\n\n  // For this example, retrieve 2 random values in one request.\n  // Cannot exceed VRFCoordinatorV2.MAX_NUM_WORDS.\n  uint32 numWords =  2;\n\n  uint256[] public s_randomWords;\n  uint256 public s_requestId;\n  address s_owner;\n\n  address payable[] public players;\n  uint public lotteryId;\n  mapping (uint => address payable) public lotteryHistory;  \n\n  constructor(uint64 subscriptionId) VRFConsumerBaseV2(vrfCoordinator) {\n    COORDINATOR = VRFCoordinatorV2Interface(vrfCoordinator);\n    s_owner = msg.sender;\n    s_subscriptionId = subscriptionId;\n    lotteryId = 1;\n  }\n\n  // Assumes the subscription is funded sufficiently.\n  function requestRandomWords() external onlyOwner {\n    // Will revert if subscription is not set and funded.\n    s_requestId = COORDINATOR.requestRandomWords(\n      keyHash,\n      s_subscriptionId,\n      requestConfirmations,\n      callbackGasLimit,\n      numWords\n    );\n  }\n  \n  function getRandomNumber() public onlyOwner returns(uint256) {\n      return COORDINATOR.requestRandomWords(\n      keyHash,\n      s_subscriptionId,\n      requestConfirmations,\n      callbackGasLimit,\n      numWords\n    );\n  }\n  function fulfillRandomWords(\n    uint256, /* requestId */\n    uint256[] memory randomWords\n  ) internal override {\n    s_randomWords = randomWords;\n  }\n\n    function getWinnerByLottery(uint lottery) public view returns (address payable) {\n        return lotteryHistory[lottery];\n    }\n\n    function getBalance() public view returns (uint) {\n        return address(this).balance;\n    }\n\n    function getPlayers() public view returns (address payable[] memory) {\n        return players;\n    }\n    function enter() public payable {\n        require(msg.value > .01 ether);\n\n        // address of player entering lottery\n        players.push(payable(msg.sender));\n    }\n\n    // function getRandomNumber() public view returns (uint) {\n    //     requestRandomWords();\n    //     return uint(s_requestId);\n    // }\n\n    function pickWinner() public onlyOwner {\n        uint index = getRandomNumber() % players.length;\n        players[index].transfer(address(this).balance);\n\n        lotteryHistory[lotteryId] = players[index];\n        lotteryId++;\n        \n\n        // reset the state of the contract\n        players = new address payable[](0);\n    }\n\n  modifier onlyOwner() {\n    require(msg.sender == s_owner);\n    _;\n  }\n}",
  "sourcePath": "D:\\02_project\\01_git\\solidity_react_web3_projects\\08_web3_lottery_dapp\\lottery\\contracts\\Lottery.sol",
  "compiler": {
    "name": "solc",
    "version": "0.8.11+commit.d7f03943.Emscripten.clang"
  },
  "schemaVersion": "3.4.7",
  "updatedAt": "2022-04-16T04:38:58.492Z",
  "networkType": "ethereum",
  "devdoc": {
    "kind": "dev",
    "methods": {},
    "version": 1
  },
  "userdoc": {
    "kind": "user",
    "methods": {},
    "version": 1
  }
}