{
  "address": "0x629C50B3A3Ab461BEaf6543bB60Cd6cFd1D3B631",
  "abi": [
    {
      "inputs": [
        {
          "internalType": "address",
          "name": "_VRFCoordinator",
          "type": "address"
        },
        {
          "internalType": "address",
          "name": "_LinkToken",
          "type": "address"
        },
        {
          "internalType": "bytes32",
          "name": "_keyhash",
          "type": "bytes32"
        },
        {
          "internalType": "uint256",
          "name": "_fee",
          "type": "uint256"
        }
      ],
      "stateMutability": "nonpayable",
      "type": "constructor"
    },
    {
      "anonymous": false,
      "inputs": [
        {
          "indexed": true,
          "internalType": "address",
          "name": "owner",
          "type": "address"
        },
        {
          "indexed": true,
          "internalType": "address",
          "name": "approved",
          "type": "address"
        },
        {
          "indexed": true,
          "internalType": "uint256",
          "name": "tokenId",
          "type": "uint256"
        }
      ],
      "name": "Approval",
      "type": "event"
    },
    {
      "anonymous": false,
      "inputs": [
        {
          "indexed": true,
          "internalType": "address",
          "name": "owner",
          "type": "address"
        },
        {
          "indexed": true,
          "internalType": "address",
          "name": "operator",
          "type": "address"
        },
        {
          "indexed": false,
          "internalType": "bool",
          "name": "approved",
          "type": "bool"
        }
      ],
      "name": "ApprovalForAll",
      "type": "event"
    },
    {
      "anonymous": false,
      "inputs": [
        {
          "indexed": true,
          "internalType": "uint256",
          "name": "tokenId",
          "type": "uint256"
        },
        {
          "indexed": false,
          "internalType": "string",
          "name": "tokenURI",
          "type": "string"
        }
      ],
      "name": "CreatedRandomSVG",
      "type": "event"
    },
    {
      "anonymous": false,
      "inputs": [
        {
          "indexed": true,
          "internalType": "uint256",
          "name": "tokenId",
          "type": "uint256"
        },
        {
          "indexed": false,
          "internalType": "uint256",
          "name": "randomNumber",
          "type": "uint256"
        }
      ],
      "name": "CreatedUnfinishedRandomSVG",
      "type": "event"
    },
    {
      "anonymous": false,
      "inputs": [
        {
          "indexed": true,
          "internalType": "address",
          "name": "previousOwner",
          "type": "address"
        },
        {
          "indexed": true,
          "internalType": "address",
          "name": "newOwner",
          "type": "address"
        }
      ],
      "name": "OwnershipTransferred",
      "type": "event"
    },
    {
      "anonymous": false,
      "inputs": [
        {
          "indexed": true,
          "internalType": "address",
          "name": "from",
          "type": "address"
        },
        {
          "indexed": true,
          "internalType": "address",
          "name": "to",
          "type": "address"
        },
        {
          "indexed": true,
          "internalType": "uint256",
          "name": "tokenId",
          "type": "uint256"
        }
      ],
      "name": "Transfer",
      "type": "event"
    },
    {
      "anonymous": false,
      "inputs": [
        {
          "indexed": true,
          "internalType": "bytes32",
          "name": "requestId",
          "type": "bytes32"
        },
        {
          "indexed": true,
          "internalType": "uint256",
          "name": "tokenId",
          "type": "uint256"
        }
      ],
      "name": "requestedRandomSVG",
      "type": "event"
    },
    {
      "anonymous": false,
      "inputs": [
        {
          "indexed": true,
          "internalType": "bytes32",
          "name": "requestId",
          "type": "bytes32"
        },
        {
          "indexed": true,
          "internalType": "uint256",
          "name": "tokenId",
          "type": "uint256"
        }
      ],
      "name": "requestedRandomSVG2",
      "type": "event"
    },
    {
      "inputs": [
        {
          "internalType": "address",
          "name": "to",
          "type": "address"
        },
        {
          "internalType": "uint256",
          "name": "tokenId",
          "type": "uint256"
        }
      ],
      "name": "approve",
      "outputs": [],
      "stateMutability": "nonpayable",
      "type": "function"
    },
    {
      "inputs": [
        {
          "internalType": "address",
          "name": "owner",
          "type": "address"
        }
      ],
      "name": "balanceOf",
      "outputs": [
        {
          "internalType": "uint256",
          "name": "",
          "type": "uint256"
        }
      ],
      "stateMutability": "view",
      "type": "function"
    },
    {
      "inputs": [
        {
          "internalType": "bytes32",
          "name": "_bytes32",
          "type": "bytes32"
        }
      ],
      "name": "bytes32ToString",
      "outputs": [
        {
          "internalType": "string",
          "name": "",
          "type": "string"
        }
      ],
      "stateMutability": "pure",
      "type": "function"
    },
    {
      "inputs": [
        {
          "internalType": "uint256",
          "name": "",
          "type": "uint256"
        }
      ],
      "name": "colors",
      "outputs": [
        {
          "internalType": "string",
          "name": "",
          "type": "string"
        }
      ],
      "stateMutability": "view",
      "type": "function"
    },
    {
      "inputs": [],
      "name": "create",
      "outputs": [
        {
          "internalType": "bytes32",
          "name": "requestId",
          "type": "bytes32"
        }
      ],
      "stateMutability": "nonpayable",
      "type": "function"
    },
    {
      "inputs": [
        {
          "internalType": "uint256",
          "name": "tokenId",
          "type": "uint256"
        }
      ],
      "name": "finishMint",
      "outputs": [],
      "stateMutability": "nonpayable",
      "type": "function"
    },
    {
      "inputs": [
        {
          "internalType": "string",
          "name": "imageURI",
          "type": "string"
        }
      ],
      "name": "formatTokenURI",
      "outputs": [
        {
          "internalType": "string",
          "name": "",
          "type": "string"
        }
      ],
      "stateMutability": "pure",
      "type": "function"
    },
    {
      "inputs": [
        {
          "internalType": "uint256",
          "name": "_randomness",
          "type": "uint256"
        }
      ],
      "name": "generatePath",
      "outputs": [
        {
          "internalType": "string",
          "name": "pathSvg",
          "type": "string"
        }
      ],
      "stateMutability": "view",
      "type": "function"
    },
    {
      "inputs": [
        {
          "internalType": "uint256",
          "name": "_randomness",
          "type": "uint256"
        }
      ],
      "name": "generatePathCommand",
      "outputs": [
        {
          "internalType": "string",
          "name": "pathCommand",
          "type": "string"
        }
      ],
      "stateMutability": "view",
      "type": "function"
    },
    {
      "inputs": [
        {
          "internalType": "uint256",
          "name": "_randomness",
          "type": "uint256"
        }
      ],
      "name": "generateSVG",
      "outputs": [
        {
          "internalType": "string",
          "name": "finalSvg",
          "type": "string"
        }
      ],
      "stateMutability": "view",
      "type": "function"
    },
    {
      "inputs": [
        {
          "internalType": "uint256",
          "name": "tokenId",
          "type": "uint256"
        }
      ],
      "name": "getApproved",
      "outputs": [
        {
          "internalType": "address",
          "name": "",
          "type": "address"
        }
      ],
      "stateMutability": "view",
      "type": "function"
    },
    {
      "inputs": [
        {
          "internalType": "address",
          "name": "owner",
          "type": "address"
        },
        {
          "internalType": "address",
          "name": "operator",
          "type": "address"
        }
      ],
      "name": "isApprovedForAll",
      "outputs": [
        {
          "internalType": "bool",
          "name": "",
          "type": "bool"
        }
      ],
      "stateMutability": "view",
      "type": "function"
    },
    {
      "inputs": [],
      "name": "maxNumberOfPathCommands",
      "outputs": [
        {
          "internalType": "uint256",
          "name": "",
          "type": "uint256"
        }
      ],
      "stateMutability": "view",
      "type": "function"
    },
    {
      "inputs": [],
      "name": "maxNumberOfPaths",
      "outputs": [
        {
          "internalType": "uint256",
          "name": "",
          "type": "uint256"
        }
      ],
      "stateMutability": "view",
      "type": "function"
    },
    {
      "inputs": [],
      "name": "name",
      "outputs": [
        {
          "internalType": "string",
          "name": "",
          "type": "string"
        }
      ],
      "stateMutability": "view",
      "type": "function"
    },
    {
      "inputs": [],
      "name": "owner",
      "outputs": [
        {
          "internalType": "address",
          "name": "",
          "type": "address"
        }
      ],
      "stateMutability": "view",
      "type": "function"
    },
    {
      "inputs": [
        {
          "internalType": "uint256",
          "name": "tokenId",
          "type": "uint256"
        }
      ],
      "name": "ownerOf",
      "outputs": [
        {
          "internalType": "address",
          "name": "",
          "type": "address"
        }
      ],
      "stateMutability": "view",
      "type": "function"
    },
    {
      "inputs": [
        {
          "internalType": "uint256",
          "name": "",
          "type": "uint256"
        }
      ],
      "name": "pathCommands",
      "outputs": [
        {
          "internalType": "string",
          "name": "",
          "type": "string"
        }
      ],
      "stateMutability": "view",
      "type": "function"
    },
    {
      "inputs": [
        {
          "internalType": "bytes32",
          "name": "requestId",
          "type": "bytes32"
        },
        {
          "internalType": "uint256",
          "name": "randomness",
          "type": "uint256"
        }
      ],
      "name": "rawFulfillRandomness",
      "outputs": [],
      "stateMutability": "nonpayable",
      "type": "function"
    },
    {
      "inputs": [],
      "name": "renounceOwnership",
      "outputs": [],
      "stateMutability": "nonpayable",
      "type": "function"
    },
    {
      "inputs": [
        {
          "internalType": "bytes32",
          "name": "",
          "type": "bytes32"
        }
      ],
      "name": "requestIdToSender",
      "outputs": [
        {
          "internalType": "address",
          "name": "",
          "type": "address"
        }
      ],
      "stateMutability": "view",
      "type": "function"
    },
    {
      "inputs": [
        {
          "internalType": "bytes32",
          "name": "",
          "type": "bytes32"
        }
      ],
      "name": "requestIdToTokenId",
      "outputs": [
        {
          "internalType": "uint256",
          "name": "",
          "type": "uint256"
        }
      ],
      "stateMutability": "view",
      "type": "function"
    },
    {
      "inputs": [
        {
          "internalType": "address",
          "name": "from",
          "type": "address"
        },
        {
          "internalType": "address",
          "name": "to",
          "type": "address"
        },
        {
          "internalType": "uint256",
          "name": "tokenId",
          "type": "uint256"
        }
      ],
      "name": "safeTransferFrom",
      "outputs": [],
      "stateMutability": "nonpayable",
      "type": "function"
    },
    {
      "inputs": [
        {
          "internalType": "address",
          "name": "from",
          "type": "address"
        },
        {
          "internalType": "address",
          "name": "to",
          "type": "address"
        },
        {
          "internalType": "uint256",
          "name": "tokenId",
          "type": "uint256"
        },
        {
          "internalType": "bytes",
          "name": "_data",
          "type": "bytes"
        }
      ],
      "name": "safeTransferFrom",
      "outputs": [],
      "stateMutability": "nonpayable",
      "type": "function"
    },
    {
      "inputs": [
        {
          "internalType": "address",
          "name": "operator",
          "type": "address"
        },
        {
          "internalType": "bool",
          "name": "approved",
          "type": "bool"
        }
      ],
      "name": "setApprovalForAll",
      "outputs": [],
      "stateMutability": "nonpayable",
      "type": "function"
    },
    {
      "inputs": [],
      "name": "size",
      "outputs": [
        {
          "internalType": "uint256",
          "name": "",
          "type": "uint256"
        }
      ],
      "stateMutability": "view",
      "type": "function"
    },
    {
      "inputs": [
        {
          "internalType": "bytes4",
          "name": "interfaceId",
          "type": "bytes4"
        }
      ],
      "name": "supportsInterface",
      "outputs": [
        {
          "internalType": "bool",
          "name": "",
          "type": "bool"
        }
      ],
      "stateMutability": "view",
      "type": "function"
    },
    {
      "inputs": [
        {
          "internalType": "string",
          "name": "svg",
          "type": "string"
        }
      ],
      "name": "svgToImageURI",
      "outputs": [
        {
          "internalType": "string",
          "name": "",
          "type": "string"
        }
      ],
      "stateMutability": "pure",
      "type": "function"
    },
    {
      "inputs": [],
      "name": "symbol",
      "outputs": [
        {
          "internalType": "string",
          "name": "",
          "type": "string"
        }
      ],
      "stateMutability": "view",
      "type": "function"
    },
    {
      "inputs": [],
      "name": "tokenCounter",
      "outputs": [
        {
          "internalType": "uint256",
          "name": "",
          "type": "uint256"
        }
      ],
      "stateMutability": "view",
      "type": "function"
    },
    {
      "inputs": [
        {
          "internalType": "uint256",
          "name": "",
          "type": "uint256"
        }
      ],
      "name": "tokenIdToRandomNumber",
      "outputs": [
        {
          "internalType": "uint256",
          "name": "",
          "type": "uint256"
        }
      ],
      "stateMutability": "view",
      "type": "function"
    },
    {
      "inputs": [
        {
          "internalType": "uint256",
          "name": "tokenId",
          "type": "uint256"
        }
      ],
      "name": "tokenURI",
      "outputs": [
        {
          "internalType": "string",
          "name": "",
          "type": "string"
        }
      ],
      "stateMutability": "view",
      "type": "function"
    },
    {
      "inputs": [
        {
          "internalType": "address",
          "name": "from",
          "type": "address"
        },
        {
          "internalType": "address",
          "name": "to",
          "type": "address"
        },
        {
          "internalType": "uint256",
          "name": "tokenId",
          "type": "uint256"
        }
      ],
      "name": "transferFrom",
      "outputs": [],
      "stateMutability": "nonpayable",
      "type": "function"
    },
    {
      "inputs": [
        {
          "internalType": "address",
          "name": "newOwner",
          "type": "address"
        }
      ],
      "name": "transferOwnership",
      "outputs": [],
      "stateMutability": "nonpayable",
      "type": "function"
    },
    {
      "inputs": [],
      "name": "withdraw",
      "outputs": [],
      "stateMutability": "payable",
      "type": "function"
    }
  ],
  "transactionHash": "0x802141deb56cd832157b0e90e9c527cfcf53212949a45078663311ba46a71f97",
  "args": [
    "0xb3dCcb4Cf7a26f6cf6B120Cf5A73875B7BBc655B",
    "0x01be23585060835e02b77ef475b0cc51aa1e0709",
    "0x2ed0feb3e7fd2022120aa84fab1945545a9f2ffc9076fd6156fa96eaff4c1311",
    "100000000000000000"
  ],
  "numDeployments": 1,
  "solcInputHash": "af3350d5814320020b61a0aef34ca9b9",
  "bytecode": "0x60c06040523480156200001157600080fd5b5060405162005b2b38038062005b2b8339818101604052810190620000379190620006b1565b83836040518060400160405280600981526020017f52616e646f6d53564700000000000000000000000000000000000000000000008152506040518060400160405280600581526020017f72734e46540000000000000000000000000000000000000000000000000000008152508160009080519060200190620000bd92919062000480565b508060019080519060200190620000d692919062000480565b5050508173ffffffffffffffffffffffffffffffffffffffff1660a08173ffffffffffffffffffffffffffffffffffffffff1660601b815250508073ffffffffffffffffffffffffffffffffffffffff1660808173ffffffffffffffffffffffffffffffffffffffff1660601b815250505050620001696200015d620003b260201b60201c565b620003ba60201b60201c565b600060098190555081600d8190555080600e81905550600a600f8190555060056010819055506101f460118190555060405180604001604052806040518060400160405280600181526020017f4d0000000000000000000000000000000000000000000000000000000000000081525081526020016040518060400160405280600181526020017f4c0000000000000000000000000000000000000000000000000000000000000081525081525060129060026200022992919062000511565b506040518060c001604052806040518060400160405280600381526020017f726564000000000000000000000000000000000000000000000000000000000081525081526020016040518060400160405280600481526020017f626c75650000000000000000000000000000000000000000000000000000000081525081526020016040518060400160405280600581526020017f677265656e00000000000000000000000000000000000000000000000000000081525081526020016040518060400160405280600681526020017f79656c6c6f77000000000000000000000000000000000000000000000000000081525081526020016040518060400160405280600581526020017f626c61636b00000000000000000000000000000000000000000000000000000081525081526020016040518060400160405280600581526020017f77686974650000000000000000000000000000000000000000000000000000008152508152506013906006620003a792919062000578565b505050505062000818565b600033905090565b6000600860009054906101000a900473ffffffffffffffffffffffffffffffffffffffff16905081600860006101000a81548173ffffffffffffffffffffffffffffffffffffffff021916908373ffffffffffffffffffffffffffffffffffffffff1602179055508173ffffffffffffffffffffffffffffffffffffffff168173ffffffffffffffffffffffffffffffffffffffff167f8be0079c531659141344cd1fd0a4f28419497f9722a3daafe3b4186f6b6457e060405160405180910390a35050565b8280546200048e9062000765565b90600052602060002090601f016020900481019282620004b25760008555620004fe565b82601f10620004cd57805160ff1916838001178555620004fe565b82800160010185558215620004fe579182015b82811115620004fd578251825591602001919060010190620004e0565b5b5090506200050d9190620005df565b5090565b82805482825590600052602060002090810192821562000565579160200282015b82811115620005645782518290805190602001906200055392919062000480565b509160200191906001019062000532565b5b509050620005749190620005fe565b5090565b828054828255906000526020600020908101928215620005cc579160200282015b82811115620005cb578251829080519060200190620005ba92919062000480565b509160200191906001019062000599565b5b509050620005db9190620005fe565b5090565b5b80821115620005fa576000816000905550600101620005e0565b5090565b5b8082111562000622576000818162000618919062000626565b50600101620005ff565b5090565b508054620006349062000765565b6000825580601f1062000648575062000669565b601f016020900490600052602060002090810190620006689190620005df565b5b50565b6000815190506200067d81620007ca565b92915050565b6000815190506200069481620007e4565b92915050565b600081519050620006ab81620007fe565b92915050565b60008060008060808587031215620006c857600080fd5b6000620006d8878288016200066c565b9450506020620006eb878288016200066c565b9350506040620006fe8782880162000683565b925050606062000711878288016200069a565b91505092959194509250565b60006200072a826200073b565b9050919050565b6000819050919050565b600073ffffffffffffffffffffffffffffffffffffffff82169050919050565b6000819050919050565b600060028204905060018216806200077e57607f821691505b602082108114156200079557620007946200079b565b5b50919050565b7f4e487b7100000000000000000000000000000000000000000000000000000000600052602260045260246000fd5b620007d5816200071d565b8114620007e157600080fd5b50565b620007ef8162000731565b8114620007fb57600080fd5b50565b62000809816200075b565b81146200081557600080fd5b50565b60805160601c60a05160601c6152e06200084b600039600081816117300152612cec01526000612cb001526152e06000f3fe6080604052600436106102045760003560e01c806371aee19311610118578063b88d4fde116100a0578063c87b56dd1161006f578063c87b56dd146107de578063d082e3811461081b578063e985e9c514610846578063efc81a8c14610883578063f2fde38b146108ae57610204565b8063b88d4fde14610710578063bd11f69d14610739578063c21bf36f14610776578063c68b49d1146107a157610204565b8063949d225d116100e7578063949d225d14610617578063955968d41461064257806395d89b411461067f5780639c1cd795146106aa578063a22cb465146106e757610204565b806371aee193146105495780638da5cb5b146105865780639201de55146105b157806394985ddd146105ee57610204565b806333af59891161019b578063624194c71161016a578063624194c7146104525780636352211e1461047b5780636dcee4ca146104b857806370a08231146104f5578063715018a61461053257610204565b806333af5989146103b75780633ccfd60b146103f457806342842e0e146103fe57806348e896ab1461042757610204565b8063219c0eee116101d7578063219c0eee146102d757806322881f881461031457806323b872dd1461035157806330d871c61461037a57610204565b806301ffc9a71461020957806306fdde0314610246578063081812fc14610271578063095ea7b3146102ae575b600080fd5b34801561021557600080fd5b50610230600480360381019061022b919061387c565b6108d7565b60405161023d9190614144565b60405180910390f35b34801561025257600080fd5b5061025b6109b9565b60405161026891906141e8565b60405180910390f35b34801561027d57600080fd5b506102986004803603810190610293919061390f565b610a4b565b6040516102a5919061409f565b60405180910390f35b3480156102ba57600080fd5b506102d560048036038101906102d091906137b2565b610ad0565b005b3480156102e357600080fd5b506102fe60048036038101906102f99190613817565b610be8565b60405161030b919061409f565b60405180910390f35b34801561032057600080fd5b5061033b60048036038101906103369190613817565b610c1b565b60405161034891906144ca565b60405180910390f35b34801561035d57600080fd5b50610378600480360381019061037391906136ac565b610c33565b005b34801561038657600080fd5b506103a1600480360381019061039c91906138ce565b610c93565b6040516103ae91906141e8565b60405180910390f35b3480156103c357600080fd5b506103de60048036038101906103d9919061390f565b610d26565b6040516103eb91906141e8565b60405180910390f35b6103fc610f12565b005b34801561040a57600080fd5b50610425600480360381019061042091906136ac565b610fde565b005b34801561043357600080fd5b5061043c610ffe565b60405161044991906144ca565b60405180910390f35b34801561045e57600080fd5b506104796004803603810190610474919061390f565b611004565b005b34801561048757600080fd5b506104a2600480360381019061049d919061390f565b61116d565b6040516104af919061409f565b60405180910390f35b3480156104c457600080fd5b506104df60048036038101906104da919061390f565b61121f565b6040516104ec91906141e8565b60405180910390f35b34801561050157600080fd5b5061051c60048036038101906105179190613647565b61131b565b60405161052991906144ca565b60405180910390f35b34801561053e57600080fd5b506105476113d3565b005b34801561055557600080fd5b50610570600480360381019061056b91906138ce565b61145b565b60405161057d91906141e8565b60405180910390f35b34801561059257600080fd5b5061059b6114ab565b6040516105a8919061409f565b60405180910390f35b3480156105bd57600080fd5b506105d860048036038101906105d39190613817565b6114d5565b6040516105e591906141e8565b60405180910390f35b3480156105fa57600080fd5b5061061560048036038101906106109190613840565b61172e565b005b34801561062357600080fd5b5061062c6117ca565b60405161063991906144ca565b60405180910390f35b34801561064e57600080fd5b506106696004803603810190610664919061390f565b6117d0565b60405161067691906141e8565b60405180910390f35b34801561068b57600080fd5b5061069461187c565b6040516106a191906141e8565b60405180910390f35b3480156106b657600080fd5b506106d160048036038101906106cc919061390f565b61190e565b6040516106de91906144ca565b60405180910390f35b3480156106f357600080fd5b5061070e60048036038101906107099190613776565b611926565b005b34801561071c57600080fd5b50610737600480360381019061073291906136fb565b61193c565b005b34801561074557600080fd5b50610760600480360381019061075b919061390f565b61199e565b60405161076d91906141e8565b60405180910390f35b34801561078257600080fd5b5061078b611a4a565b60405161079891906144ca565b60405180910390f35b3480156107ad57600080fd5b506107c860048036038101906107c3919061390f565b611a50565b6040516107d591906141e8565b60405180910390f35b3480156107ea57600080fd5b506108056004803603810190610800919061390f565b611c0f565b60405161081291906141e8565b60405180910390f35b34801561082757600080fd5b50610830611d61565b60405161083d91906144ca565b60405180910390f35b34801561085257600080fd5b5061086d60048036038101906108689190613670565b611d67565b60405161087a9190614144565b60405180910390f35b34801561088f57600080fd5b50610898611dfb565b6040516108a5919061415f565b60405180910390f35b3480156108ba57600080fd5b506108d560048036038101906108d09190613647565b611ef3565b005b60007f80ac58cd000000000000000000000000000000000000000000000000000000007bffffffffffffffffffffffffffffffffffffffffffffffffffffffff1916827bffffffffffffffffffffffffffffffffffffffffffffffffffffffff191614806109a257507f5b5e139f000000000000000000000000000000000000000000000000000000007bffffffffffffffffffffffffffffffffffffffffffffffffffffffff1916827bffffffffffffffffffffffffffffffffffffffffffffffffffffffff1916145b806109b257506109b182611feb565b5b9050919050565b6060600080546109c8906147f1565b80601f01602080910402602001604051908101604052809291908181526020018280546109f4906147f1565b8015610a415780601f10610a1657610100808354040283529160200191610a41565b820191906000526020600020905b815481529060010190602001808311610a2457829003601f168201915b5050505050905090565b6000610a5682612055565b610a95576040517f08c379a0000000000000000000000000000000000000000000000000000000008152600401610a8c9061440a565b60405180910390fd5b6004600083815260200190815260200160002060009054906101000a900473ffffffffffffffffffffffffffffffffffffffff169050919050565b6000610adb8261116d565b90508073ffffffffffffffffffffffffffffffffffffffff168373ffffffffffffffffffffffffffffffffffffffff161415610b4c576040517f08c379a0000000000000000000000000000000000000000000000000000000008152600401610b439061448a565b60405180910390fd5b8073ffffffffffffffffffffffffffffffffffffffff16610b6b6120c1565b73ffffffffffffffffffffffffffffffffffffffff161480610b9a5750610b9981610b946120c1565b611d67565b5b610bd9576040517f08c379a0000000000000000000000000000000000000000000000000000000008152600401610bd09061432a565b60405180910390fd5b610be383836120c9565b505050565b600a6020528060005260406000206000915054906101000a900473ffffffffffffffffffffffffffffffffffffffff1681565b600c6020528060005260406000206000915090505481565b610c44610c3e6120c1565b82612182565b610c83576040517f08c379a0000000000000000000000000000000000000000000000000000000008152600401610c7a906144aa565b60405180910390fd5b610c8e838383612260565b505050565b606060006040518060400160405280601a81526020017f646174613a696d6167652f7376672b786d6c3b6261736536342c00000000000081525090506000610cf984604051602001610ce59190613f17565b6040516020818303038152906040526124c7565b90508181604051602001610d0e929190613f2e565b60405160208183030381529060405292505050919050565b60606000600160105484610d3a91906148db565b610d4491906145d8565b90506040518060400160405280600981526020017f3c7061746820643d270000000000000000000000000000000000000000000000815250915060005b81811015610e06576000610dcc8583601154610d9d91906145d8565b604051602001610dae9291906144e5565b6040516020818303038152906040528051906020012060001c611a50565b90508381604051602001610de1929190613f2e565b6040516020818303038152906040529350508080610dfe90614854565b915050610d81565b5060006013808054905085610e1b91906148db565b81548110610e52577f4e487b7100000000000000000000000000000000000000000000000000000000600052603260045260246000fd5b906000526020600020018054610e67906147f1565b80601f0160208091040260200160405190810160405280929190818152602001828054610e93906147f1565b8015610ee05780601f10610eb557610100808354040283529160200191610ee0565b820191906000526020600020905b815481529060010190602001808311610ec357829003601f168201915b505050505090508281604051602001610efa929190613f52565b60405160208183030381529060405292505050919050565b610f1a6120c1565b73ffffffffffffffffffffffffffffffffffffffff16610f386114ab565b73ffffffffffffffffffffffffffffffffffffffff1614610f8e576040517f08c379a0000000000000000000000000000000000000000000000000000000008152600401610f859061442a565b60405180910390fd5b610f966114ab565b73ffffffffffffffffffffffffffffffffffffffff166108fc479081150290604051600060405180830381858888f19350505050158015610fdb573d6000803e3d6000fd5b50565b610ff98383836040518060200160405280600081525061193c565b505050565b60105481565b600061100f82611c0f565b511115611051576040517f08c379a0000000000000000000000000000000000000000000000000000000008152600401611048906142ea565b60405180910390fd5b8060095411611095576040517f08c379a000000000000000000000000000000000000000000000000000000000815260040161108c906143aa565b60405180910390fd5b6000600b600083815260200190815260200160002054116110eb576040517f08c379a00000000000000000000000000000000000000000000000000000000081526004016110e29061428a565b60405180910390fd5b6000600b6000838152602001908152602001600020549050600061110e8261121f565b9050600061111b82610c93565b905061112f8461112a8361145b565b612666565b837f15a6487b7915a7116ce2a61d43b17e9b47484b1931f3c79f2f3d139b307b38938360405161115f91906141e8565b60405180910390a250505050565b6000806002600084815260200190815260200160002060009054906101000a900473ffffffffffffffffffffffffffffffffffffffff169050600073ffffffffffffffffffffffffffffffffffffffff168173ffffffffffffffffffffffffffffffffffffffff161415611216576040517f08c379a000000000000000000000000000000000000000000000000000000000815260040161120d9061436a565b60405180910390fd5b80915050919050565b606060006001600f548461123391906148db565b61123d91906145d8565b905061124a6011546126da565b6112556011546126da565b604051602001611266929190614038565b604051602081830303815290604052915060005b818110156112f25760006112b8858360405160200161129a9291906144e5565b6040516020818303038152906040528051906020012060001c610d26565b905083816040516020016112cd929190613f2e565b60405160208183030381529060405293505080806112ea90614854565b91505061127a565b50816040516020016113049190613fd3565b604051602081830303815290604052915050919050565b60008073ffffffffffffffffffffffffffffffffffffffff168273ffffffffffffffffffffffffffffffffffffffff16141561138c576040517f08c379a00000000000000000000000000000000000000000000000000000000081526004016113839061434a565b60405180910390fd5b600360008373ffffffffffffffffffffffffffffffffffffffff1673ffffffffffffffffffffffffffffffffffffffff168152602001908152602001600020549050919050565b6113db6120c1565b73ffffffffffffffffffffffffffffffffffffffff166113f96114ab565b73ffffffffffffffffffffffffffffffffffffffff161461144f576040517f08c379a00000000000000000000000000000000000000000000000000000000081526004016114469061442a565b60405180910390fd5b61145960006128af565b565b6060611485826040516020016114719190613ff5565b6040516020818303038152906040526124c7565b604051602001611495919061407d565b6040516020818303038152906040529050919050565b6000600860009054906101000a900473ffffffffffffffffffffffffffffffffffffffff16905090565b606060005b60208160ff161080156115525750600060f81b838260ff1660208110611529577f4e487b7100000000000000000000000000000000000000000000000000000000600052603260045260246000fd5b1a60f81b7effffffffffffffffffffffffffffffffffffffffffffffffffffffffffffff191614155b1561156a5780806115629061489d565b9150506114da565b60008160ff1667ffffffffffffffff8111156115af577f4e487b7100000000000000000000000000000000000000000000000000000000600052604160045260246000fd5b6040519080825280601f01601f1916602001820160405280156115e15781602001600182028036833780820191505090505b509050600091505b60208260ff161080156116615750600060f81b848360ff1660208110611638577f4e487b7100000000000000000000000000000000000000000000000000000000600052603260045260246000fd5b1a60f81b7effffffffffffffffffffffffffffffffffffffffffffffffffffffffffffff191614155b1561172457838260ff16602081106116a2577f4e487b7100000000000000000000000000000000000000000000000000000000600052603260045260246000fd5b1a60f81b818360ff16815181106116e2577f4e487b7100000000000000000000000000000000000000000000000000000000600052603260045260246000fd5b60200101907effffffffffffffffffffffffffffffffffffffffffffffffffffffffffffff1916908160001a905350818061171c9061489d565b9250506115e9565b8092505050919050565b7f000000000000000000000000000000000000000000000000000000000000000073ffffffffffffffffffffffffffffffffffffffff163373ffffffffffffffffffffffffffffffffffffffff16146117bc576040517f08c379a00000000000000000000000000000000000000000000000000000000081526004016117b39061446a565b60405180910390fd5b6117c68282612975565b5050565b60115481565b601281815481106117e057600080fd5b9060005260206000200160009150905080546117fb906147f1565b80601f0160208091040260200160405190810160405280929190818152602001828054611827906147f1565b80156118745780601f1061184957610100808354040283529160200191611874565b820191906000526020600020905b81548152906001019060200180831161185757829003601f168201915b505050505081565b60606001805461188b906147f1565b80601f01602080910402602001604051908101604052809291908181526020018280546118b7906147f1565b80156119045780601f106118d957610100808354040283529160200191611904565b820191906000526020600020905b8154815290600101906020018083116118e757829003601f168201915b5050505050905090565b600b6020528060005260406000206000915090505481565b6119386119316120c1565b8383612a25565b5050565b61194d6119476120c1565b83612182565b61198c576040517f08c379a0000000000000000000000000000000000000000000000000000000008152600401611983906144aa565b60405180910390fd5b61199884848484612b92565b50505050565b601381815481106119ae57600080fd5b9060005260206000200160009150905080546119c9906147f1565b80601f01602080910402602001604051908101604052809291908181526020018280546119f5906147f1565b8015611a425780601f10611a1757610100808354040283529160200191611a42565b820191906000526020600020905b815481529060010190602001808311611a2557829003601f168201915b505050505081565b600f5481565b60606012808054905083611a6491906148db565b81548110611a9b577f4e487b7100000000000000000000000000000000000000000000000000000000600052603260045260246000fd5b906000526020600020018054611ab0906147f1565b80601f0160208091040260200160405190810160405280929190818152602001828054611adc906147f1565b8015611b295780601f10611afe57610100808354040283529160200191611b29565b820191906000526020600020905b815481529060010190602001808311611b0c57829003601f168201915b505050505090506000601154836002601154611b459190614696565b604051602001611b569291906144e5565b6040516020818303038152906040528051906020012060001c611b7991906148db565b905060006011548460016002601154611b929190614696565b611b9c91906145d8565b604051602001611bad9291906144e5565b6040516020818303038152906040528051906020012060001c611bd091906148db565b905082611bdc836126da565b611be5836126da565b604051602001611bf793929190613f8c565b60405160208183030381529060405292505050919050565b6060611c1a82612055565b611c59576040517f08c379a0000000000000000000000000000000000000000000000000000000008152600401611c50906143ea565b60405180910390fd5b6000600660008481526020019081526020016000208054611c79906147f1565b80601f0160208091040260200160405190810160405280929190818152602001828054611ca5906147f1565b8015611cf25780601f10611cc757610100808354040283529160200191611cf2565b820191906000526020600020905b815481529060010190602001808311611cd557829003601f168201915b505050505090506000611d03612bee565b9050600081511415611d19578192505050611d5c565b600082511115611d4e578082604051602001611d36929190613f2e565b60405160208183030381529060405292505050611d5c565b611d5784612c05565b925050505b919050565b60095481565b6000600560008473ffffffffffffffffffffffffffffffffffffffff1673ffffffffffffffffffffffffffffffffffffffff16815260200190815260200160002060008373ffffffffffffffffffffffffffffffffffffffff1673ffffffffffffffffffffffffffffffffffffffff16815260200190815260200160002060009054906101000a900460ff16905092915050565b6000611e0b600d54600e54612cac565b905033600a600083815260200190815260200160002060006101000a81548173ffffffffffffffffffffffffffffffffffffffff021916908373ffffffffffffffffffffffffffffffffffffffff1602179055506000600954905080600c6000848152602001908152602001600020819055506001600954611e8d91906145d8565b60098190555080827fb97343f1f2afc4959f818046ccae28fd7b05fcd2b7a7dc651cbb52a096cae03560405160405180910390a380827ff1534a234bcbb54b6e3fec36d49acd97237a79ffd28014a7b5392db530466d8560405160405180910390a35090565b611efb6120c1565b73ffffffffffffffffffffffffffffffffffffffff16611f196114ab565b73ffffffffffffffffffffffffffffffffffffffff1614611f6f576040517f08c379a0000000000000000000000000000000000000000000000000000000008152600401611f669061442a565b60405180910390fd5b600073ffffffffffffffffffffffffffffffffffffffff168173ffffffffffffffffffffffffffffffffffffffff161415611fdf576040517f08c379a0000000000000000000000000000000000000000000000000000000008152600401611fd69061422a565b60405180910390fd5b611fe8816128af565b50565b60007f01ffc9a7000000000000000000000000000000000000000000000000000000007bffffffffffffffffffffffffffffffffffffffffffffffffffffffff1916827bffffffffffffffffffffffffffffffffffffffffffffffffffffffff1916149050919050565b60008073ffffffffffffffffffffffffffffffffffffffff166002600084815260200190815260200160002060009054906101000a900473ffffffffffffffffffffffffffffffffffffffff1673ffffffffffffffffffffffffffffffffffffffff1614159050919050565b600033905090565b816004600083815260200190815260200160002060006101000a81548173ffffffffffffffffffffffffffffffffffffffff021916908373ffffffffffffffffffffffffffffffffffffffff160217905550808273ffffffffffffffffffffffffffffffffffffffff1661213c8361116d565b73ffffffffffffffffffffffffffffffffffffffff167f8c5be1e5ebec7d5bd14f71427d1e84f3dd0314c0f7b2291e5b200ac8c7c3b92560405160405180910390a45050565b600061218d82612055565b6121cc576040517f08c379a00000000000000000000000000000000000000000000000000000000081526004016121c39061430a565b60405180910390fd5b60006121d78361116d565b90508073ffffffffffffffffffffffffffffffffffffffff168473ffffffffffffffffffffffffffffffffffffffff16148061221957506122188185611d67565b5b8061225757508373ffffffffffffffffffffffffffffffffffffffff1661223f84610a4b565b73ffffffffffffffffffffffffffffffffffffffff16145b91505092915050565b8273ffffffffffffffffffffffffffffffffffffffff166122808261116d565b73ffffffffffffffffffffffffffffffffffffffff16146122d6576040517f08c379a00000000000000000000000000000000000000000000000000000000081526004016122cd9061424a565b60405180910390fd5b600073ffffffffffffffffffffffffffffffffffffffff168273ffffffffffffffffffffffffffffffffffffffff161415612346576040517f08c379a000000000000000000000000000000000000000000000000000000000815260040161233d906142aa565b60405180910390fd5b612351838383612e0e565b61235c6000826120c9565b6001600360008573ffffffffffffffffffffffffffffffffffffffff1673ffffffffffffffffffffffffffffffffffffffff16815260200190815260200160002060008282546123ac91906146f0565b925050819055506001600360008473ffffffffffffffffffffffffffffffffffffffff1673ffffffffffffffffffffffffffffffffffffffff168152602001908152602001600020600082825461240391906145d8565b92505081905550816002600083815260200190815260200160002060006101000a81548173ffffffffffffffffffffffffffffffffffffffff021916908373ffffffffffffffffffffffffffffffffffffffff160217905550808273ffffffffffffffffffffffffffffffffffffffff168473ffffffffffffffffffffffffffffffffffffffff167fddf252ad1be2c89b69c2b068fc378daa952ba7f163c4a11628f55a4df523b3ef60405160405180910390a46124c2838383612e13565b505050565b60606000825114156124ea57604051806020016040528060008152509050612661565b600060405180606001604052806040815260200161526b604091399050600060036002855161251991906145d8565b6125239190614665565b600461252f9190614696565b9050600060208261254091906145d8565b67ffffffffffffffff81111561257f577f4e487b7100000000000000000000000000000000000000000000000000000000600052604160045260246000fd5b6040519080825280601f01601f1916602001820160405280156125b15781602001600182028036833780820191505090505b509050818152600183018586518101602084015b81831015612620576003830192508251603f8160121c168501518253600182019150603f81600c1c168501518253600182019150603f8160061c168501518253600182019150603f81168501518253600182019150506125c5565b60038951066001811461263a576002811461264a57612655565b613d3d60f01b6002830352612655565b603d60f81b60018303525b50505050508093505050505b919050565b61266f82612055565b6126ae576040517f08c379a00000000000000000000000000000000000000000000000000000000081526004016126a59061438a565b60405180910390fd5b806006600084815260200190815260200160002090805190602001906126d5929190613441565b505050565b60606000821415612722576040518060400160405280600181526020017f300000000000000000000000000000000000000000000000000000000000000081525090506128aa565b600082905060005b6000821461275457808061273d90614854565b915050600a8261274d9190614665565b915061272a565b60008167ffffffffffffffff811115612796577f4e487b7100000000000000000000000000000000000000000000000000000000600052604160045260246000fd5b6040519080825280601f01601f1916602001820160405280156127c85781602001600182028036833780820191505090505b50905060008290505b600086146128a2576001816127e691906146f0565b90506000600a80886127f89190614665565b6128029190614696565b8761280d91906146f0565b6030612819919061462e565b905060008160f81b90508084848151811061285d577f4e487b7100000000000000000000000000000000000000000000000000000000600052603260045260246000fd5b60200101907effffffffffffffffffffffffffffffffffffffffffffffffffffffffffffff1916908160001a905350600a886128999190614665565b975050506127d1565b819450505050505b919050565b6000600860009054906101000a900473ffffffffffffffffffffffffffffffffffffffff16905081600860006101000a81548173ffffffffffffffffffffffffffffffffffffffff021916908373ffffffffffffffffffffffffffffffffffffffff1602179055508173ffffffffffffffffffffffffffffffffffffffff168173ffffffffffffffffffffffffffffffffffffffff167f8be0079c531659141344cd1fd0a4f28419497f9722a3daafe3b4186f6b6457e060405160405180910390a35050565b6000600a600084815260200190815260200160002060009054906101000a900473ffffffffffffffffffffffffffffffffffffffff1690506000600c60008581526020019081526020016000205490506129cf8282612e18565b82600b600083815260200190815260200160002081905550807faad5362ce528ed941024b95d4c18dfd49b8503e1f586a5c353631d98c2af41b784604051612a1791906144ca565b60405180910390a250505050565b8173ffffffffffffffffffffffffffffffffffffffff168373ffffffffffffffffffffffffffffffffffffffff161415612a94576040517f08c379a0000000000000000000000000000000000000000000000000000000008152600401612a8b906142ca565b60405180910390fd5b80600560008573ffffffffffffffffffffffffffffffffffffffff1673ffffffffffffffffffffffffffffffffffffffff16815260200190815260200160002060008473ffffffffffffffffffffffffffffffffffffffff1673ffffffffffffffffffffffffffffffffffffffff16815260200190815260200160002060006101000a81548160ff0219169083151502179055508173ffffffffffffffffffffffffffffffffffffffff168373ffffffffffffffffffffffffffffffffffffffff167f17307eab39ab6107e8899845ad3d59bd9653f200f220920489ca2b5937696c3183604051612b859190614144565b60405180910390a3505050565b612b9d848484612260565b612ba984848484612e36565b612be8576040517f08c379a0000000000000000000000000000000000000000000000000000000008152600401612bdf9061420a565b60405180910390fd5b50505050565b606060405180602001604052806000815250905090565b6060612c1082612055565b612c4f576040517f08c379a0000000000000000000000000000000000000000000000000000000008152600401612c469061444a565b60405180910390fd5b6000612c59612bee565b90506000815111612c795760405180602001604052806000815250612ca4565b80612c8384612fcd565b604051602001612c94929190613f2e565b6040516020818303038152906040525b915050919050565b60007f000000000000000000000000000000000000000000000000000000000000000073ffffffffffffffffffffffffffffffffffffffff16634000aea07f000000000000000000000000000000000000000000000000000000000000000084866000604051602001612d2092919061417a565b6040516020818303038152906040526040518463ffffffff1660e01b8152600401612d4d93929190614106565b602060405180830381600087803b158015612d6757600080fd5b505af1158015612d7b573d6000803e3d6000fd5b505050506040513d601f19601f82011682018060405250810190612d9f91906137ee565b506000612dc284600030600760008981526020019081526020016000205461317a565b905060016007600086815260200190815260200160002054612de491906145d8565b6007600086815260200190815260200160002081905550612e0584826131b6565b91505092915050565b505050565b505050565b612e328282604051806020016040528060008152506131e9565b5050565b6000612e578473ffffffffffffffffffffffffffffffffffffffff16613244565b15612fc0578373ffffffffffffffffffffffffffffffffffffffff1663150b7a02612e806120c1565b8786866040518563ffffffff1660e01b8152600401612ea294939291906140ba565b602060405180830381600087803b158015612ebc57600080fd5b505af1925050508015612eed57506040513d601f19601f82011682018060405250810190612eea91906138a5565b60015b612f70573d8060008114612f1d576040519150601f19603f3d011682016040523d82523d6000602084013e612f22565b606091505b50600081511415612f68576040517f08c379a0000000000000000000000000000000000000000000000000000000008152600401612f5f9061420a565b60405180910390fd5b805181602001fd5b63150b7a0260e01b7bffffffffffffffffffffffffffffffffffffffffffffffffffffffff1916817bffffffffffffffffffffffffffffffffffffffffffffffffffffffff191614915050612fc5565b600190505b949350505050565b60606000821415613015576040518060400160405280600181526020017f30000000000000000000000000000000000000000000000000000000000000008152509050613175565b600082905060005b6000821461304757808061303090614854565b915050600a826130409190614665565b915061301d565b60008167ffffffffffffffff811115613089577f4e487b7100000000000000000000000000000000000000000000000000000000600052604160045260246000fd5b6040519080825280601f01601f1916602001820160405280156130bb5781602001600182028036833780820191505090505b5090505b6000851461316e576001826130d491906146f0565b9150600a856130e391906148db565b60306130ef91906145d8565b60f81b81838151811061312b577f4e487b7100000000000000000000000000000000000000000000000000000000600052603260045260246000fd5b60200101907effffffffffffffffffffffffffffffffffffffffffffffffffffffffffffff1916908160001a905350600a856131679190614665565b94506130bf565b8093505050505b919050565b60008484848460405160200161319394939291906141a3565b6040516020818303038152906040528051906020012060001c9050949350505050565b600082826040516020016131cb929190613eeb565b60405160208183030381529060405280519060200120905092915050565b6131f38383613267565b6132006000848484612e36565b61323f576040517f08c379a00000000000000000000000000000000000000000000000000000000081526004016132369061420a565b60405180910390fd5b505050565b6000808273ffffffffffffffffffffffffffffffffffffffff163b119050919050565b600073ffffffffffffffffffffffffffffffffffffffff168273ffffffffffffffffffffffffffffffffffffffff1614156132d7576040517f08c379a00000000000000000000000000000000000000000000000000000000081526004016132ce906143ca565b60405180910390fd5b6132e081612055565b15613320576040517f08c379a00000000000000000000000000000000000000000000000000000000081526004016133179061426a565b60405180910390fd5b61332c60008383612e0e565b6001600360008473ffffffffffffffffffffffffffffffffffffffff1673ffffffffffffffffffffffffffffffffffffffff168152602001908152602001600020600082825461337c91906145d8565b92505081905550816002600083815260200190815260200160002060006101000a81548173ffffffffffffffffffffffffffffffffffffffff021916908373ffffffffffffffffffffffffffffffffffffffff160217905550808273ffffffffffffffffffffffffffffffffffffffff16600073ffffffffffffffffffffffffffffffffffffffff167fddf252ad1be2c89b69c2b068fc378daa952ba7f163c4a11628f55a4df523b3ef60405160405180910390a461343d60008383612e13565b5050565b82805461344d906147f1565b90600052602060002090601f01602090048101928261346f57600085556134b6565b82601f1061348857805160ff19168380011785556134b6565b828001600101855582156134b6579182015b828111156134b557825182559160200191906001019061349a565b5b5090506134c391906134c7565b5090565b5b808211156134e05760008160009055506001016134c8565b5090565b60006134f76134f284614533565b61450e565b90508281526020810184848401111561350f57600080fd5b61351a8482856147af565b509392505050565b600061353561353084614564565b61450e565b90508281526020810184848401111561354d57600080fd5b6135588482856147af565b509392505050565b60008135905061356f816151f7565b92915050565b6000813590506135848161520e565b92915050565b6000815190506135998161520e565b92915050565b6000813590506135ae81615225565b92915050565b6000813590506135c38161523c565b92915050565b6000815190506135d88161523c565b92915050565b600082601f8301126135ef57600080fd5b81356135ff8482602086016134e4565b91505092915050565b600082601f83011261361957600080fd5b8135613629848260208601613522565b91505092915050565b60008135905061364181615253565b92915050565b60006020828403121561365957600080fd5b600061366784828501613560565b91505092915050565b6000806040838503121561368357600080fd5b600061369185828601613560565b92505060206136a285828601613560565b9150509250929050565b6000806000606084860312156136c157600080fd5b60006136cf86828701613560565b93505060206136e086828701613560565b92505060406136f186828701613632565b9150509250925092565b6000806000806080858703121561371157600080fd5b600061371f87828801613560565b945050602061373087828801613560565b935050604061374187828801613632565b925050606085013567ffffffffffffffff81111561375e57600080fd5b61376a878288016135de565b91505092959194509250565b6000806040838503121561378957600080fd5b600061379785828601613560565b92505060206137a885828601613575565b9150509250929050565b600080604083850312156137c557600080fd5b60006137d385828601613560565b92505060206137e485828601613632565b9150509250929050565b60006020828403121561380057600080fd5b600061380e8482850161358a565b91505092915050565b60006020828403121561382957600080fd5b60006138378482850161359f565b91505092915050565b6000806040838503121561385357600080fd5b60006138618582860161359f565b925050602061387285828601613632565b9150509250929050565b60006020828403121561388e57600080fd5b600061389c848285016135b4565b91505092915050565b6000602082840312156138b757600080fd5b60006138c5848285016135c9565b91505092915050565b6000602082840312156138e057600080fd5b600082013567ffffffffffffffff8111156138fa57600080fd5b61390684828501613608565b91505092915050565b60006020828403121561392157600080fd5b600061392f84828501613632565b91505092915050565b61394181614724565b82525050565b61395081614736565b82525050565b61395f81614742565b82525050565b61397661397182614742565b6148c7565b82525050565b600061398782614595565b61399181856145ab565b93506139a18185602086016147be565b6139aa816149c8565b840191505092915050565b60006139c0826145a0565b6139ca81856145bc565b93506139da8185602086016147be565b6139e3816149c8565b840191505092915050565b60006139f9826145a0565b613a0381856145cd565b9350613a138185602086016147be565b80840191505092915050565b6000613a2c6009836145cd565b9150613a37826149d9565b600982019050919050565b6000613a4f6032836145bc565b9150613a5a82614a02565b604082019050919050565b6000613a726026836145bc565b9150613a7d82614a51565b604082019050919050565b6000613a956025836145bc565b9150613aa082614aa0565b604082019050919050565b6000613ab8601c836145bc565b9150613ac382614aef565b602082019050919050565b6000613adb602f836145bc565b9150613ae682614b18565b604082019050919050565b6000613afe6024836145bc565b9150613b0982614b67565b604082019050919050565b6000613b216019836145bc565b9150613b2c82614bb6565b602082019050919050565b6000613b446018836145bc565b9150613b4f82614bdf565b602082019050919050565b6000613b67602c836145bc565b9150613b7282614c08565b604082019050919050565b6000613b8a601d836145cd565b9150613b9582614c57565b601d82019050919050565b6000613bad6001836145cd565b9150613bb882614c80565b600182019050919050565b6000613bd06003836145cd565b9150613bdb82614ca9565b600382019050919050565b6000613bf36007836145cd565b9150613bfe82614cd2565b600782019050919050565b6000613c166038836145bc565b9150613c2182614cfb565b604082019050919050565b6000613c39602a836145bc565b9150613c4482614d4a565b604082019050919050565b6000613c5c6029836145bc565b9150613c6782614d99565b604082019050919050565b6000613c7f602e836145bc565b9150613c8a82614de8565b604082019050919050565b6000613ca26020836145bc565b9150613cad82614e37565b602082019050919050565b6000613cc56002836145cd565b9150613cd082614e60565b600282019050919050565b6000613ce86020836145bc565b9150613cf382614e89565b602082019050919050565b6000613d0b6031836145bc565b9150613d1682614eb2565b604082019050919050565b6000613d2e602c836145bc565b9150613d3982614f01565b604082019050919050565b6000613d516020836145bc565b9150613d5c82614f50565b602082019050919050565b6000613d746030836145cd565b9150613d7f82614f79565b603082019050919050565b6000613d97602f836145bc565b9150613da282614fc8565b604082019050919050565b6000613dba601f836145bc565b9150613dc582615017565b602082019050919050565b6000613ddd6043836145cd565b9150613de882615040565b604382019050919050565b6000613e006021836145bc565b9150613e0b826150b5565b604082019050919050565b6000613e23601d836145cd565b9150613e2e82615104565b601d82019050919050565b6000613e466031836145bc565b9150613e518261512d565b604082019050919050565b6000613e696002836145cd565b9150613e748261517c565b600282019050919050565b6000613e8c6006836145cd565b9150613e97826151a5565b600682019050919050565b6000613eaf6009836145cd565b9150613eba826151ce565b600982019050919050565b613ece81614798565b82525050565b613ee5613ee082614798565b6148d1565b82525050565b6000613ef78285613965565b602082019150613f078284613ed4565b6020820191508190509392505050565b6000613f2382846139ee565b915081905092915050565b6000613f3a82856139ee565b9150613f4682846139ee565b91508190509392505050565b6000613f5e82856139ee565b9150613f6982613b7d565b9150613f7582846139ee565b9150613f8082613bc3565b91508190509392505050565b6000613f9882866139ee565b9150613fa382613ba0565b9150613faf82856139ee565b9150613fba82613ba0565b9150613fc682846139ee565b9150819050949350505050565b6000613fdf82846139ee565b9150613fea82613e7f565b915081905092915050565b600061400082613a1f565b915061400b82613be6565b915061401682613dd0565b915061402282846139ee565b915061402d82613cb8565b915081905092915050565b600061404382613d67565b915061404f82856139ee565b915061405a82613ea2565b915061406682846139ee565b915061407182613e5c565b91508190509392505050565b600061408882613e16565b915061409482846139ee565b915081905092915050565b60006020820190506140b46000830184613938565b92915050565b60006080820190506140cf6000830187613938565b6140dc6020830186613938565b6140e96040830185613ec5565b81810360608301526140fb818461397c565b905095945050505050565b600060608201905061411b6000830186613938565b6141286020830185613ec5565b818103604083015261413a818461397c565b9050949350505050565b60006020820190506141596000830184613947565b92915050565b60006020820190506141746000830184613956565b92915050565b600060408201905061418f6000830185613956565b61419c6020830184613ec5565b9392505050565b60006080820190506141b86000830187613956565b6141c56020830186613ec5565b6141d26040830185613938565b6141df6060830184613ec5565b95945050505050565b6000602082019050818103600083015261420281846139b5565b905092915050565b6000602082019050818103600083015261422381613a42565b9050919050565b6000602082019050818103600083015261424381613a65565b9050919050565b6000602082019050818103600083015261426381613a88565b9050919050565b6000602082019050818103600083015261428381613aab565b9050919050565b600060208201905081810360008301526142a381613ace565b9050919050565b600060208201905081810360008301526142c381613af1565b9050919050565b600060208201905081810360008301526142e381613b14565b9050919050565b6000602082019050818103600083015261430381613b37565b9050919050565b6000602082019050818103600083015261432381613b5a565b9050919050565b6000602082019050818103600083015261434381613c09565b9050919050565b6000602082019050818103600083015261436381613c2c565b9050919050565b6000602082019050818103600083015261438381613c4f565b9050919050565b600060208201905081810360008301526143a381613c72565b9050919050565b600060208201905081810360008301526143c381613c95565b9050919050565b600060208201905081810360008301526143e381613cdb565b9050919050565b6000602082019050818103600083015261440381613cfe565b9050919050565b6000602082019050818103600083015261442381613d21565b9050919050565b6000602082019050818103600083015261444381613d44565b9050919050565b6000602082019050818103600083015261446381613d8a565b9050919050565b6000602082019050818103600083015261448381613dad565b9050919050565b600060208201905081810360008301526144a381613df3565b9050919050565b600060208201905081810360008301526144c381613e39565b9050919050565b60006020820190506144df6000830184613ec5565b92915050565b60006040820190506144fa6000830185613ec5565b6145076020830184613ec5565b9392505050565b6000614518614529565b90506145248282614823565b919050565b6000604051905090565b600067ffffffffffffffff82111561454e5761454d614999565b5b614557826149c8565b9050602081019050919050565b600067ffffffffffffffff82111561457f5761457e614999565b5b614588826149c8565b9050602081019050919050565b600081519050919050565b600081519050919050565b600082825260208201905092915050565b600082825260208201905092915050565b600081905092915050565b60006145e382614798565b91506145ee83614798565b9250827fffffffffffffffffffffffffffffffffffffffffffffffffffffffffffffffff038211156146235761462261490c565b5b828201905092915050565b6000614639826147a2565b9150614644836147a2565b92508260ff0382111561465a5761465961490c565b5b828201905092915050565b600061467082614798565b915061467b83614798565b92508261468b5761468a61493b565b5b828204905092915050565b60006146a182614798565b91506146ac83614798565b9250817fffffffffffffffffffffffffffffffffffffffffffffffffffffffffffffffff04831182151516156146e5576146e461490c565b5b828202905092915050565b60006146fb82614798565b915061470683614798565b9250828210156147195761471861490c565b5b828203905092915050565b600061472f82614778565b9050919050565b60008115159050919050565b6000819050919050565b60007fffffffff0000000000000000000000000000000000000000000000000000000082169050919050565b600073ffffffffffffffffffffffffffffffffffffffff82169050919050565b6000819050919050565b600060ff82169050919050565b82818337600083830152505050565b60005b838110156147dc5780820151818401526020810190506147c1565b838111156147eb576000848401525b50505050565b6000600282049050600182168061480957607f821691505b6020821081141561481d5761481c61496a565b5b50919050565b61482c826149c8565b810181811067ffffffffffffffff8211171561484b5761484a614999565b5b80604052505050565b600061485f82614798565b91507fffffffffffffffffffffffffffffffffffffffffffffffffffffffffffffffff8214156148925761489161490c565b5b600182019050919050565b60006148a8826147a2565b915060ff8214156148bc576148bb61490c565b5b600182019050919050565b6000819050919050565b6000819050919050565b60006148e682614798565b91506148f183614798565b9250826149015761490061493b565b5b828206905092915050565b7f4e487b7100000000000000000000000000000000000000000000000000000000600052601160045260246000fd5b7f4e487b7100000000000000000000000000000000000000000000000000000000600052601260045260246000fd5b7f4e487b7100000000000000000000000000000000000000000000000000000000600052602260045260246000fd5b7f4e487b7100000000000000000000000000000000000000000000000000000000600052604160045260246000fd5b6000601f19601f8301169050919050565b7f7b226e616d65223a220000000000000000000000000000000000000000000000600082015250565b7f4552433732313a207472616e7366657220746f206e6f6e20455243373231526560008201527f63656976657220696d706c656d656e7465720000000000000000000000000000602082015250565b7f4f776e61626c653a206e6577206f776e657220697320746865207a65726f206160008201527f6464726573730000000000000000000000000000000000000000000000000000602082015250565b7f4552433732313a207472616e736665722066726f6d20696e636f72726563742060008201527f6f776e6572000000000000000000000000000000000000000000000000000000602082015250565b7f4552433732313a20746f6b656e20616c7265616479206d696e74656400000000600082015250565b7f4e65656420746f207761697420666f722074686520436861696e6c696e6b206e60008201527f6f646520746f20726573706f6e64210000000000000000000000000000000000602082015250565b7f4552433732313a207472616e7366657220746f20746865207a65726f2061646460008201527f7265737300000000000000000000000000000000000000000000000000000000602082015250565b7f4552433732313a20617070726f766520746f2063616c6c657200000000000000600082015250565b7f746f6b656e55524920697320616c726561647920736574210000000000000000600082015250565b7f4552433732313a206f70657261746f7220717565727920666f72206e6f6e657860008201527f697374656e7420746f6b656e0000000000000000000000000000000000000000602082015250565b7f272066696c6c3d277472616e73706172656e7427207374726f6b653d27000000600082015250565b7f2000000000000000000000000000000000000000000000000000000000000000600082015250565b7f272f3e0000000000000000000000000000000000000000000000000000000000600082015250565b7f535647204e465400000000000000000000000000000000000000000000000000600082015250565b7f4552433732313a20617070726f76652063616c6c6572206973206e6f74206f7760008201527f6e6572206e6f7220617070726f76656420666f7220616c6c0000000000000000602082015250565b7f4552433732313a2062616c616e636520717565727920666f7220746865207a6560008201527f726f206164647265737300000000000000000000000000000000000000000000602082015250565b7f4552433732313a206f776e657220717565727920666f72206e6f6e657869737460008201527f656e7420746f6b656e0000000000000000000000000000000000000000000000602082015250565b7f45524337323155524953746f726167653a2055524920736574206f66206e6f6e60008201527f6578697374656e7420746f6b656e000000000000000000000000000000000000602082015250565b7f546f6b656e496420686173206e6f74206265656e206d696e7465642079657421600082015250565b7f227d000000000000000000000000000000000000000000000000000000000000600082015250565b7f4552433732313a206d696e7420746f20746865207a65726f2061646472657373600082015250565b7f45524337323155524953746f726167653a2055524920717565727920666f722060008201527f6e6f6e6578697374656e7420746f6b656e000000000000000000000000000000602082015250565b7f4552433732313a20617070726f76656420717565727920666f72206e6f6e657860008201527f697374656e7420746f6b656e0000000000000000000000000000000000000000602082015250565b7f4f776e61626c653a2063616c6c6572206973206e6f7420746865206f776e6572600082015250565b7f3c73766720786d6c6e733d27687474703a2f2f7777772e77332e6f72672f323060008201527f30302f73766727206865696768743d2700000000000000000000000000000000602082015250565b7f4552433732314d657461646174613a2055524920717565727920666f72206e6f60008201527f6e6578697374656e7420746f6b656e0000000000000000000000000000000000602082015250565b7f4f6e6c7920565246436f6f7264696e61746f722063616e2066756c66696c6c00600082015250565b7f222c20226465736372697074696f6e223a22416e204e4654206261736564206f60008201527f6e2053564721222c202261747472696275746573223a22222c2022696d61676560208201527f223a220000000000000000000000000000000000000000000000000000000000604082015250565b7f4552433732313a20617070726f76616c20746f2063757272656e74206f776e6560008201527f7200000000000000000000000000000000000000000000000000000000000000602082015250565b7f646174613a6170706c69636174696f6e2f6a736f6e3b6261736536342c000000600082015250565b7f4552433732313a207472616e736665722063616c6c6572206973206e6f74206f60008201527f776e6572206e6f7220617070726f766564000000000000000000000000000000602082015250565b7f273e000000000000000000000000000000000000000000000000000000000000600082015250565b7f3c2f7376673e0000000000000000000000000000000000000000000000000000600082015250565b7f272077696474683d270000000000000000000000000000000000000000000000600082015250565b61520081614724565b811461520b57600080fd5b50565b61521781614736565b811461522257600080fd5b50565b61522e81614742565b811461523957600080fd5b50565b6152458161474c565b811461525057600080fd5b50565b61525c81614798565b811461526757600080fd5b5056fe4142434445464748494a4b4c4d4e4f505152535455565758595a6162636465666768696a6b6c6d6e6f707172737475767778797a303132333435363738392b2fa264697066735822122002522ed4cb4d16934e23662ff6aee96b5909cd2acaf8d21fbcf606730ae4829564736f6c63430008040033",
  "devdoc": {
    "kind": "dev",
    "methods": {
      "approve(address,uint256)": {
        "details": "See {IERC721-approve}."
      },
      "balanceOf(address)": {
        "details": "See {IERC721-balanceOf}."
      },
      "getApproved(uint256)": {
        "details": "See {IERC721-getApproved}."
      },
      "isApprovedForAll(address,address)": {
        "details": "See {IERC721-isApprovedForAll}."
      },
      "name()": {
        "details": "See {IERC721Metadata-name}."
      },
      "owner()": {
        "details": "Returns the address of the current owner."
      },
      "ownerOf(uint256)": {
        "details": "See {IERC721-ownerOf}."
      },
      "renounceOwnership()": {
        "details": "Leaves the contract without owner. It will not be possible to call `onlyOwner` functions anymore. Can only be called by the current owner. NOTE: Renouncing ownership will leave the contract without an owner, thereby removing any functionality that is only available to the owner."
      },
      "safeTransferFrom(address,address,uint256)": {
        "details": "See {IERC721-safeTransferFrom}."
      },
      "safeTransferFrom(address,address,uint256,bytes)": {
        "details": "See {IERC721-safeTransferFrom}."
      },
      "setApprovalForAll(address,bool)": {
        "details": "See {IERC721-setApprovalForAll}."
      },
      "supportsInterface(bytes4)": {
        "details": "See {IERC165-supportsInterface}."
      },
      "symbol()": {
        "details": "See {IERC721Metadata-symbol}."
      },
      "tokenURI(uint256)": {
        "details": "See {IERC721Metadata-tokenURI}."
      },
      "transferFrom(address,address,uint256)": {
        "details": "See {IERC721-transferFrom}."
      },
      "transferOwnership(address)": {
        "details": "Transfers ownership of the contract to a new account (`newOwner`). Can only be called by the current owner."
      }
    },
    "version": 1
  },
  "userdoc": {
    "kind": "user",
    "methods": {},
    "version": 1
  },
  "storageLayout": {
    "storage": [
      {
        "astId": 396,
        "contract": "contracts/RandomSVG.sol:RandomSVG",
        "label": "_name",
        "offset": 0,
        "slot": "0",
        "type": "t_string_storage"
      },
      {
        "astId": 398,
        "contract": "contracts/RandomSVG.sol:RandomSVG",
        "label": "_symbol",
        "offset": 0,
        "slot": "1",
        "type": "t_string_storage"
      },
      {
        "astId": 402,
        "contract": "contracts/RandomSVG.sol:RandomSVG",
        "label": "_owners",
        "offset": 0,
        "slot": "2",
        "type": "t_mapping(t_uint256,t_address)"
      },
      {
        "astId": 406,
        "contract": "contracts/RandomSVG.sol:RandomSVG",
        "label": "_balances",
        "offset": 0,
        "slot": "3",
        "type": "t_mapping(t_address,t_uint256)"
      },
      {
        "astId": 410,
        "contract": "contracts/RandomSVG.sol:RandomSVG",
        "label": "_tokenApprovals",
        "offset": 0,
        "slot": "4",
        "type": "t_mapping(t_uint256,t_address)"
      },
      {
        "astId": 416,
        "contract": "contracts/RandomSVG.sol:RandomSVG",
        "label": "_operatorApprovals",
        "offset": 0,
        "slot": "5",
        "type": "t_mapping(t_address,t_mapping(t_address,t_bool))"
      },
      {
        "astId": 1383,
        "contract": "contracts/RandomSVG.sol:RandomSVG",
        "label": "_tokenURIs",
        "offset": 0,
        "slot": "6",
        "type": "t_mapping(t_uint256,t_string_storage)"
      },
      {
        "astId": 79,
        "contract": "contracts/RandomSVG.sol:RandomSVG",
        "label": "nonces",
        "offset": 0,
        "slot": "7",
        "type": "t_mapping(t_bytes32,t_uint256)"
      },
      {
        "astId": 273,
        "contract": "contracts/RandomSVG.sol:RandomSVG",
        "label": "_owner",
        "offset": 0,
        "slot": "8",
        "type": "t_address"
      },
      {
        "astId": 2210,
        "contract": "contracts/RandomSVG.sol:RandomSVG",
        "label": "tokenCounter",
        "offset": 0,
        "slot": "9",
        "type": "t_uint256"
      },
      {
        "astId": 2238,
        "contract": "contracts/RandomSVG.sol:RandomSVG",
        "label": "requestIdToSender",
        "offset": 0,
        "slot": "10",
        "type": "t_mapping(t_bytes32,t_address)"
      },
      {
        "astId": 2242,
        "contract": "contracts/RandomSVG.sol:RandomSVG",
        "label": "tokenIdToRandomNumber",
        "offset": 0,
        "slot": "11",
        "type": "t_mapping(t_uint256,t_uint256)"
      },
      {
        "astId": 2246,
        "contract": "contracts/RandomSVG.sol:RandomSVG",
        "label": "requestIdToTokenId",
        "offset": 0,
        "slot": "12",
        "type": "t_mapping(t_bytes32,t_uint256)"
      },
      {
        "astId": 2248,
        "contract": "contracts/RandomSVG.sol:RandomSVG",
        "label": "keyHash",
        "offset": 0,
        "slot": "13",
        "type": "t_bytes32"
      },
      {
        "astId": 2250,
        "contract": "contracts/RandomSVG.sol:RandomSVG",
        "label": "fee",
        "offset": 0,
        "slot": "14",
        "type": "t_uint256"
      },
      {
        "astId": 2252,
        "contract": "contracts/RandomSVG.sol:RandomSVG",
        "label": "maxNumberOfPaths",
        "offset": 0,
        "slot": "15",
        "type": "t_uint256"
      },
      {
        "astId": 2254,
        "contract": "contracts/RandomSVG.sol:RandomSVG",
        "label": "maxNumberOfPathCommands",
        "offset": 0,
        "slot": "16",
        "type": "t_uint256"
      },
      {
        "astId": 2256,
        "contract": "contracts/RandomSVG.sol:RandomSVG",
        "label": "size",
        "offset": 0,
        "slot": "17",
        "type": "t_uint256"
      },
      {
        "astId": 2259,
        "contract": "contracts/RandomSVG.sol:RandomSVG",
        "label": "pathCommands",
        "offset": 0,
        "slot": "18",
        "type": "t_array(t_string_storage)dyn_storage"
      },
      {
        "astId": 2262,
        "contract": "contracts/RandomSVG.sol:RandomSVG",
        "label": "colors",
        "offset": 0,
        "slot": "19",
        "type": "t_array(t_string_storage)dyn_storage"
      }
    ],
    "types": {
      "t_address": {
        "encoding": "inplace",
        "label": "address",
        "numberOfBytes": "20"
      },
      "t_array(t_string_storage)dyn_storage": {
        "base": "t_string_storage",
        "encoding": "dynamic_array",
        "label": "string[]",
        "numberOfBytes": "32"
      },
      "t_bool": {
        "encoding": "inplace",
        "label": "bool",
        "numberOfBytes": "1"
      },
      "t_bytes32": {
        "encoding": "inplace",
        "label": "bytes32",
        "numberOfBytes": "32"
      },
      "t_mapping(t_address,t_bool)": {
        "encoding": "mapping",
        "key": "t_address",
        "label": "mapping(address => bool)",
        "numberOfBytes": "32",
        "value": "t_bool"
      },
      "t_mapping(t_address,t_mapping(t_address,t_bool))": {
        "encoding": "mapping",
        "key": "t_address",
        "label": "mapping(address => mapping(address => bool))",
        "numberOfBytes": "32",
        "value": "t_mapping(t_address,t_bool)"
      },
      "t_mapping(t_address,t_uint256)": {
        "encoding": "mapping",
        "key": "t_address",
        "label": "mapping(address => uint256)",
        "numberOfBytes": "32",
        "value": "t_uint256"
      },
      "t_mapping(t_bytes32,t_address)": {
        "encoding": "mapping",
        "key": "t_bytes32",
        "label": "mapping(bytes32 => address)",
        "numberOfBytes": "32",
        "value": "t_address"
      },
      "t_mapping(t_bytes32,t_uint256)": {
        "encoding": "mapping",
        "key": "t_bytes32",
        "label": "mapping(bytes32 => uint256)",
        "numberOfBytes": "32",
        "value": "t_uint256"
      },
      "t_mapping(t_uint256,t_address)": {
        "encoding": "mapping",
        "key": "t_uint256",
        "label": "mapping(uint256 => address)",
        "numberOfBytes": "32",
        "value": "t_address"
      },
      "t_mapping(t_uint256,t_string_storage)": {
        "encoding": "mapping",
        "key": "t_uint256",
        "label": "mapping(uint256 => string)",
        "numberOfBytes": "32",
        "value": "t_string_storage"
      },
      "t_mapping(t_uint256,t_uint256)": {
        "encoding": "mapping",
        "key": "t_uint256",
        "label": "mapping(uint256 => uint256)",
        "numberOfBytes": "32",
        "value": "t_uint256"
      },
      "t_string_storage": {
        "encoding": "bytes",
        "label": "string",
        "numberOfBytes": "32"
      },
      "t_uint256": {
        "encoding": "inplace",
        "label": "uint256",
        "numberOfBytes": "32"
      }
    }
  }
}