{
  "address": "0xa99a21FF09788d5D9B042F3C6F579D16C5FbE280",
  "abi": [
    {
      "inputs": [],
      "stateMutability": "nonpayable",
      "type": "constructor"
    },
    {
      "anonymous": false,
      "inputs": [
        {
          "indexed": true,
          "internalType": "address",
          "name": "owner",
          "type": "address"
        },
        {
          "indexed": true,
          "internalType": "address",
          "name": "approved",
          "type": "address"
        },
        {
          "indexed": true,
          "internalType": "uint256",
          "name": "tokenId",
          "type": "uint256"
        }
      ],
      "name": "Approval",
      "type": "event"
    },
    {
      "anonymous": false,
      "inputs": [
        {
          "indexed": true,
          "internalType": "address",
          "name": "owner",
          "type": "address"
        },
        {
          "indexed": true,
          "internalType": "address",
          "name": "operator",
          "type": "address"
        },
        {
          "indexed": false,
          "internalType": "bool",
          "name": "approved",
          "type": "bool"
        }
      ],
      "name": "ApprovalForAll",
      "type": "event"
    },
    {
      "anonymous": false,
      "inputs": [
        {
          "indexed": true,
          "internalType": "uint256",
          "name": "tokenId",
          "type": "uint256"
        },
        {
          "indexed": false,
          "internalType": "string",
          "name": "tokenURI",
          "type": "string"
        }
      ],
      "name": "CreatedSVGNFT",
      "type": "event"
    },
    {
      "anonymous": false,
      "inputs": [
        {
          "indexed": true,
          "internalType": "address",
          "name": "previousOwner",
          "type": "address"
        },
        {
          "indexed": true,
          "internalType": "address",
          "name": "newOwner",
          "type": "address"
        }
      ],
      "name": "OwnershipTransferred",
      "type": "event"
    },
    {
      "anonymous": false,
      "inputs": [
        {
          "indexed": true,
          "internalType": "address",
          "name": "from",
          "type": "address"
        },
        {
          "indexed": true,
          "internalType": "address",
          "name": "to",
          "type": "address"
        },
        {
          "indexed": true,
          "internalType": "uint256",
          "name": "tokenId",
          "type": "uint256"
        }
      ],
      "name": "Transfer",
      "type": "event"
    },
    {
      "inputs": [
        {
          "internalType": "address",
          "name": "to",
          "type": "address"
        },
        {
          "internalType": "uint256",
          "name": "tokenId",
          "type": "uint256"
        }
      ],
      "name": "approve",
      "outputs": [],
      "stateMutability": "nonpayable",
      "type": "function"
    },
    {
      "inputs": [
        {
          "internalType": "address",
          "name": "owner",
          "type": "address"
        }
      ],
      "name": "balanceOf",
      "outputs": [
        {
          "internalType": "uint256",
          "name": "",
          "type": "uint256"
        }
      ],
      "stateMutability": "view",
      "type": "function"
    },
    {
      "inputs": [
        {
          "internalType": "string",
          "name": "svg",
          "type": "string"
        }
      ],
      "name": "create",
      "outputs": [],
      "stateMutability": "nonpayable",
      "type": "function"
    },
    {
      "inputs": [
        {
          "internalType": "string",
          "name": "imageURI",
          "type": "string"
        }
      ],
      "name": "formatTokenURI",
      "outputs": [
        {
          "internalType": "string",
          "name": "",
          "type": "string"
        }
      ],
      "stateMutability": "pure",
      "type": "function"
    },
    {
      "inputs": [
        {
          "internalType": "uint256",
          "name": "tokenId",
          "type": "uint256"
        }
      ],
      "name": "getApproved",
      "outputs": [
        {
          "internalType": "address",
          "name": "",
          "type": "address"
        }
      ],
      "stateMutability": "view",
      "type": "function"
    },
    {
      "inputs": [
        {
          "internalType": "address",
          "name": "owner",
          "type": "address"
        },
        {
          "internalType": "address",
          "name": "operator",
          "type": "address"
        }
      ],
      "name": "isApprovedForAll",
      "outputs": [
        {
          "internalType": "bool",
          "name": "",
          "type": "bool"
        }
      ],
      "stateMutability": "view",
      "type": "function"
    },
    {
      "inputs": [],
      "name": "name",
      "outputs": [
        {
          "internalType": "string",
          "name": "",
          "type": "string"
        }
      ],
      "stateMutability": "view",
      "type": "function"
    },
    {
      "inputs": [],
      "name": "owner",
      "outputs": [
        {
          "internalType": "address",
          "name": "",
          "type": "address"
        }
      ],
      "stateMutability": "view",
      "type": "function"
    },
    {
      "inputs": [
        {
          "internalType": "uint256",
          "name": "tokenId",
          "type": "uint256"
        }
      ],
      "name": "ownerOf",
      "outputs": [
        {
          "internalType": "address",
          "name": "",
          "type": "address"
        }
      ],
      "stateMutability": "view",
      "type": "function"
    },
    {
      "inputs": [],
      "name": "renounceOwnership",
      "outputs": [],
      "stateMutability": "nonpayable",
      "type": "function"
    },
    {
      "inputs": [
        {
          "internalType": "address",
          "name": "from",
          "type": "address"
        },
        {
          "internalType": "address",
          "name": "to",
          "type": "address"
        },
        {
          "internalType": "uint256",
          "name": "tokenId",
          "type": "uint256"
        }
      ],
      "name": "safeTransferFrom",
      "outputs": [],
      "stateMutability": "nonpayable",
      "type": "function"
    },
    {
      "inputs": [
        {
          "internalType": "address",
          "name": "from",
          "type": "address"
        },
        {
          "internalType": "address",
          "name": "to",
          "type": "address"
        },
        {
          "internalType": "uint256",
          "name": "tokenId",
          "type": "uint256"
        },
        {
          "internalType": "bytes",
          "name": "_data",
          "type": "bytes"
        }
      ],
      "name": "safeTransferFrom",
      "outputs": [],
      "stateMutability": "nonpayable",
      "type": "function"
    },
    {
      "inputs": [
        {
          "internalType": "address",
          "name": "operator",
          "type": "address"
        },
        {
          "internalType": "bool",
          "name": "approved",
          "type": "bool"
        }
      ],
      "name": "setApprovalForAll",
      "outputs": [],
      "stateMutability": "nonpayable",
      "type": "function"
    },
    {
      "inputs": [
        {
          "internalType": "bytes4",
          "name": "interfaceId",
          "type": "bytes4"
        }
      ],
      "name": "supportsInterface",
      "outputs": [
        {
          "internalType": "bool",
          "name": "",
          "type": "bool"
        }
      ],
      "stateMutability": "view",
      "type": "function"
    },
    {
      "inputs": [
        {
          "internalType": "string",
          "name": "svg",
          "type": "string"
        }
      ],
      "name": "svgToImageURI",
      "outputs": [
        {
          "internalType": "string",
          "name": "",
          "type": "string"
        }
      ],
      "stateMutability": "pure",
      "type": "function"
    },
    {
      "inputs": [],
      "name": "symbol",
      "outputs": [
        {
          "internalType": "string",
          "name": "",
          "type": "string"
        }
      ],
      "stateMutability": "view",
      "type": "function"
    },
    {
      "inputs": [],
      "name": "tokenCounter",
      "outputs": [
        {
          "internalType": "uint256",
          "name": "",
          "type": "uint256"
        }
      ],
      "stateMutability": "view",
      "type": "function"
    },
    {
      "inputs": [
        {
          "internalType": "uint256",
          "name": "tokenId",
          "type": "uint256"
        }
      ],
      "name": "tokenURI",
      "outputs": [
        {
          "internalType": "string",
          "name": "",
          "type": "string"
        }
      ],
      "stateMutability": "view",
      "type": "function"
    },
    {
      "inputs": [
        {
          "internalType": "address",
          "name": "from",
          "type": "address"
        },
        {
          "internalType": "address",
          "name": "to",
          "type": "address"
        },
        {
          "internalType": "uint256",
          "name": "tokenId",
          "type": "uint256"
        }
      ],
      "name": "transferFrom",
      "outputs": [],
      "stateMutability": "nonpayable",
      "type": "function"
    },
    {
      "inputs": [
        {
          "internalType": "address",
          "name": "newOwner",
          "type": "address"
        }
      ],
      "name": "transferOwnership",
      "outputs": [],
      "stateMutability": "nonpayable",
      "type": "function"
    }
  ],
  "transactionHash": "0x02bc38c5da9dc7a3aa55f1478e8bb9085a05ee7144d1b12e2cbc177177f3697b",
  "args": [],
  "numDeployments": 1,
  "solcInputHash": "ff7c16e8fc7ac39151422887ed48bf70",
  "bytecode": "0x60806040523480156200001157600080fd5b506040518060400160405280600781526020017f535647204e4654000000000000000000000000000000000000000000000000008152506040518060400160405280600681526020017f7376674e46540000000000000000000000000000000000000000000000000000815250816000908051906020019062000096929190620001ae565b508060019080519060200190620000af929190620001ae565b505050620000d2620000c6620000e060201b60201c565b620000e860201b60201c565b6000600881905550620002c3565b600033905090565b6000600760009054906101000a900473ffffffffffffffffffffffffffffffffffffffff16905081600760006101000a81548173ffffffffffffffffffffffffffffffffffffffff021916908373ffffffffffffffffffffffffffffffffffffffff1602179055508173ffffffffffffffffffffffffffffffffffffffff168173ffffffffffffffffffffffffffffffffffffffff167f8be0079c531659141344cd1fd0a4f28419497f9722a3daafe3b4186f6b6457e060405160405180910390a35050565b828054620001bc906200025e565b90600052602060002090601f016020900481019282620001e057600085556200022c565b82601f10620001fb57805160ff19168380011785556200022c565b828001600101855582156200022c579182015b828111156200022b5782518255916020019190600101906200020e565b5b5090506200023b91906200023f565b5090565b5b808211156200025a57600081600090555060010162000240565b5090565b600060028204905060018216806200027757607f821691505b602082108114156200028e576200028d62000294565b5b50919050565b7f4e487b7100000000000000000000000000000000000000000000000000000000600052602260045260246000fd5b6135e880620002d36000396000f3fe608060405234801561001057600080fd5b506004361061012c5760003560e01c806371aee193116100ad578063b88d4fde11610071578063b88d4fde14610341578063c87b56dd1461035d578063d082e3811461038d578063e985e9c5146103ab578063f2fde38b146103db5761012c565b806371aee1931461029d5780638da5cb5b146102cd57806395d89b41146102eb578063a22cb46514610309578063b6a46b3b146103255761012c565b806330d871c6116100f457806330d871c6146101e757806342842e0e146102175780636352211e1461023357806370a0823114610263578063715018a6146102935761012c565b806301ffc9a71461013157806306fdde0314610161578063081812fc1461017f578063095ea7b3146101af57806323b872dd146101cb575b600080fd5b61014b60048036038101906101469190612278565b6103f7565b6040516101589190612830565b60405180910390f35b6101696104d9565b604051610176919061284b565b60405180910390f35b6101996004803603810190610194919061230b565b61056b565b6040516101a691906127c9565b60405180910390f35b6101c960048036038101906101c4919061223c565b6105f0565b005b6101e560048036038101906101e09190612136565b610708565b005b61020160048036038101906101fc91906122ca565b610768565b60405161020e919061284b565b60405180910390f35b610231600480360381019061022c9190612136565b6107fb565b005b61024d6004803603810190610248919061230b565b61081b565b60405161025a91906127c9565b60405180910390f35b61027d600480360381019061027891906120d1565b6108cd565b60405161028a9190612aad565b60405180910390f35b61029b610985565b005b6102b760048036038101906102b291906122ca565b610a0d565b6040516102c4919061284b565b60405180910390f35b6102d5610a5d565b6040516102e291906127c9565b60405180910390f35b6102f3610a87565b604051610300919061284b565b60405180910390f35b610323600480360381019061031e9190612200565b610b19565b005b61033f600480360381019061033a91906122ca565b610b2f565b005b61035b60048036038101906103569190612185565b610baf565b005b6103776004803603810190610372919061230b565b610c11565b604051610384919061284b565b60405180910390f35b610395610d63565b6040516103a29190612aad565b60405180910390f35b6103c560048036038101906103c091906120fa565b610d69565b6040516103d29190612830565b60405180910390f35b6103f560048036038101906103f091906120d1565b610dfd565b005b60007f80ac58cd000000000000000000000000000000000000000000000000000000007bffffffffffffffffffffffffffffffffffffffffffffffffffffffff1916827bffffffffffffffffffffffffffffffffffffffffffffffffffffffff191614806104c257507f5b5e139f000000000000000000000000000000000000000000000000000000007bffffffffffffffffffffffffffffffffffffffffffffffffffffffff1916827bffffffffffffffffffffffffffffffffffffffffffffffffffffffff1916145b806104d257506104d182610ef5565b5b9050919050565b6060600080546104e890612d5d565b80601f016020809104026020016040519081016040528092919081815260200182805461051490612d5d565b80156105615780601f1061053657610100808354040283529160200191610561565b820191906000526020600020905b81548152906001019060200180831161054457829003601f168201915b5050505050905090565b600061057682610f5f565b6105b5576040517f08c379a00000000000000000000000000000000000000000000000000000000081526004016105ac90612a0d565b60405180910390fd5b6004600083815260200190815260200160002060009054906101000a900473ffffffffffffffffffffffffffffffffffffffff169050919050565b60006105fb8261081b565b90508073ffffffffffffffffffffffffffffffffffffffff168373ffffffffffffffffffffffffffffffffffffffff16141561066c576040517f08c379a000000000000000000000000000000000000000000000000000000000815260040161066390612a6d565b60405180910390fd5b8073ffffffffffffffffffffffffffffffffffffffff1661068b610fcb565b73ffffffffffffffffffffffffffffffffffffffff1614806106ba57506106b9816106b4610fcb565b610d69565b5b6106f9576040517f08c379a00000000000000000000000000000000000000000000000000000000081526004016106f09061294d565b60405180910390fd5b6107038383610fd3565b505050565b610719610713610fcb565b8261108c565b610758576040517f08c379a000000000000000000000000000000000000000000000000000000000815260040161074f90612a8d565b60405180910390fd5b61076383838361116a565b505050565b606060006040518060400160405280601a81526020017f646174613a696d6167652f7376672b786d6c3b6261736536342c000000000000815250905060006107ce846040516020016107ba9190612729565b6040516020818303038152906040526113d1565b905081816040516020016107e3929190612740565b60405160208183030381529060405292505050919050565b61081683838360405180602001604052806000815250610baf565b505050565b6000806002600084815260200190815260200160002060009054906101000a900473ffffffffffffffffffffffffffffffffffffffff169050600073ffffffffffffffffffffffffffffffffffffffff168173ffffffffffffffffffffffffffffffffffffffff1614156108c4576040517f08c379a00000000000000000000000000000000000000000000000000000000081526004016108bb9061298d565b60405180910390fd5b80915050919050565b60008073ffffffffffffffffffffffffffffffffffffffff168273ffffffffffffffffffffffffffffffffffffffff16141561093e576040517f08c379a00000000000000000000000000000000000000000000000000000000081526004016109359061296d565b60405180910390fd5b600360008373ffffffffffffffffffffffffffffffffffffffff1673ffffffffffffffffffffffffffffffffffffffff168152602001908152602001600020549050919050565b61098d610fcb565b73ffffffffffffffffffffffffffffffffffffffff166109ab610a5d565b73ffffffffffffffffffffffffffffffffffffffff1614610a01576040517f08c379a00000000000000000000000000000000000000000000000000000000081526004016109f890612a2d565b60405180910390fd5b610a0b6000611570565b565b6060610a3782604051602001610a239190612764565b6040516020818303038152906040526113d1565b604051602001610a4791906127a7565b6040516020818303038152906040529050919050565b6000600760009054906101000a900473ffffffffffffffffffffffffffffffffffffffff16905090565b606060018054610a9690612d5d565b80601f0160208091040260200160405190810160405280929190818152602001828054610ac290612d5d565b8015610b0f5780601f10610ae457610100808354040283529160200191610b0f565b820191906000526020600020905b815481529060010190602001808311610af257829003601f168201915b5050505050905090565b610b2b610b24610fcb565b8383611636565b5050565b610b3b336008546117a3565b6000610b4682610768565b9050610b5c600854610b5783610a0d565b6117c1565b6001600854610b6b9190612b92565b6008819055506008547ff5acc616aa8ecd00e5d76674d7812f9c3c3571d662c9fba4499deefa6d0be12d83604051610ba3919061284b565b60405180910390a25050565b610bc0610bba610fcb565b8361108c565b610bff576040517f08c379a0000000000000000000000000000000000000000000000000000000008152600401610bf690612a8d565b60405180910390fd5b610c0b84848484611835565b50505050565b6060610c1c82610f5f565b610c5b576040517f08c379a0000000000000000000000000000000000000000000000000000000008152600401610c52906129ed565b60405180910390fd5b6000600660008481526020019081526020016000208054610c7b90612d5d565b80601f0160208091040260200160405190810160405280929190818152602001828054610ca790612d5d565b8015610cf45780601f10610cc957610100808354040283529160200191610cf4565b820191906000526020600020905b815481529060010190602001808311610cd757829003601f168201915b505050505090506000610d05611891565b9050600081511415610d1b578192505050610d5e565b600082511115610d50578082604051602001610d38929190612740565b60405160208183030381529060405292505050610d5e565b610d59846118a8565b925050505b919050565b60085481565b6000600560008473ffffffffffffffffffffffffffffffffffffffff1673ffffffffffffffffffffffffffffffffffffffff16815260200190815260200160002060008373ffffffffffffffffffffffffffffffffffffffff1673ffffffffffffffffffffffffffffffffffffffff16815260200190815260200160002060009054906101000a900460ff16905092915050565b610e05610fcb565b73ffffffffffffffffffffffffffffffffffffffff16610e23610a5d565b73ffffffffffffffffffffffffffffffffffffffff1614610e79576040517f08c379a0000000000000000000000000000000000000000000000000000000008152600401610e7090612a2d565b60405180910390fd5b600073ffffffffffffffffffffffffffffffffffffffff168173ffffffffffffffffffffffffffffffffffffffff161415610ee9576040517f08c379a0000000000000000000000000000000000000000000000000000000008152600401610ee09061288d565b60405180910390fd5b610ef281611570565b50565b60007f01ffc9a7000000000000000000000000000000000000000000000000000000007bffffffffffffffffffffffffffffffffffffffffffffffffffffffff1916827bffffffffffffffffffffffffffffffffffffffffffffffffffffffff1916149050919050565b60008073ffffffffffffffffffffffffffffffffffffffff166002600084815260200190815260200160002060009054906101000a900473ffffffffffffffffffffffffffffffffffffffff1673ffffffffffffffffffffffffffffffffffffffff1614159050919050565b600033905090565b816004600083815260200190815260200160002060006101000a81548173ffffffffffffffffffffffffffffffffffffffff021916908373ffffffffffffffffffffffffffffffffffffffff160217905550808273ffffffffffffffffffffffffffffffffffffffff166110468361081b565b73ffffffffffffffffffffffffffffffffffffffff167f8c5be1e5ebec7d5bd14f71427d1e84f3dd0314c0f7b2291e5b200ac8c7c3b92560405160405180910390a45050565b600061109782610f5f565b6110d6576040517f08c379a00000000000000000000000000000000000000000000000000000000081526004016110cd9061292d565b60405180910390fd5b60006110e18361081b565b90508073ffffffffffffffffffffffffffffffffffffffff168473ffffffffffffffffffffffffffffffffffffffff16148061112357506111228185610d69565b5b8061116157508373ffffffffffffffffffffffffffffffffffffffff166111498461056b565b73ffffffffffffffffffffffffffffffffffffffff16145b91505092915050565b8273ffffffffffffffffffffffffffffffffffffffff1661118a8261081b565b73ffffffffffffffffffffffffffffffffffffffff16146111e0576040517f08c379a00000000000000000000000000000000000000000000000000000000081526004016111d7906128ad565b60405180910390fd5b600073ffffffffffffffffffffffffffffffffffffffff168273ffffffffffffffffffffffffffffffffffffffff161415611250576040517f08c379a0000000000000000000000000000000000000000000000000000000008152600401611247906128ed565b60405180910390fd5b61125b83838361194f565b611266600082610fd3565b6001600360008573ffffffffffffffffffffffffffffffffffffffff1673ffffffffffffffffffffffffffffffffffffffff16815260200190815260200160002060008282546112b69190612c73565b925050819055506001600360008473ffffffffffffffffffffffffffffffffffffffff1673ffffffffffffffffffffffffffffffffffffffff168152602001908152602001600020600082825461130d9190612b92565b92505081905550816002600083815260200190815260200160002060006101000a81548173ffffffffffffffffffffffffffffffffffffffff021916908373ffffffffffffffffffffffffffffffffffffffff160217905550808273ffffffffffffffffffffffffffffffffffffffff168473ffffffffffffffffffffffffffffffffffffffff167fddf252ad1be2c89b69c2b068fc378daa952ba7f163c4a11628f55a4df523b3ef60405160405180910390a46113cc838383611954565b505050565b60606000825114156113f45760405180602001604052806000815250905061156b565b600060405180606001604052806040815260200161357360409139905060006003600285516114239190612b92565b61142d9190612be8565b60046114399190612c19565b9050600060208261144a9190612b92565b67ffffffffffffffff811115611489577f4e487b7100000000000000000000000000000000000000000000000000000000600052604160045260246000fd5b6040519080825280601f01601f1916602001820160405280156114bb5781602001600182028036833780820191505090505b509050818152600183018586518101602084015b8183101561152a576003830192508251603f8160121c168501518253600182019150603f81600c1c168501518253600182019150603f8160061c168501518253600182019150603f81168501518253600182019150506114cf565b60038951066001811461154457600281146115545761155f565b613d3d60f01b600283035261155f565b603d60f81b60018303525b50505050508093505050505b919050565b6000600760009054906101000a900473ffffffffffffffffffffffffffffffffffffffff16905081600760006101000a81548173ffffffffffffffffffffffffffffffffffffffff021916908373ffffffffffffffffffffffffffffffffffffffff1602179055508173ffffffffffffffffffffffffffffffffffffffff168173ffffffffffffffffffffffffffffffffffffffff167f8be0079c531659141344cd1fd0a4f28419497f9722a3daafe3b4186f6b6457e060405160405180910390a35050565b8173ffffffffffffffffffffffffffffffffffffffff168373ffffffffffffffffffffffffffffffffffffffff1614156116a5576040517f08c379a000000000000000000000000000000000000000000000000000000000815260040161169c9061290d565b60405180910390fd5b80600560008573ffffffffffffffffffffffffffffffffffffffff1673ffffffffffffffffffffffffffffffffffffffff16815260200190815260200160002060008473ffffffffffffffffffffffffffffffffffffffff1673ffffffffffffffffffffffffffffffffffffffff16815260200190815260200160002060006101000a81548160ff0219169083151502179055508173ffffffffffffffffffffffffffffffffffffffff168373ffffffffffffffffffffffffffffffffffffffff167f17307eab39ab6107e8899845ad3d59bd9653f200f220920489ca2b5937696c31836040516117969190612830565b60405180910390a3505050565b6117bd828260405180602001604052806000815250611959565b5050565b6117ca82610f5f565b611809576040517f08c379a0000000000000000000000000000000000000000000000000000000008152600401611800906129ad565b60405180910390fd5b80600660008481526020019081526020016000209080519060200190611830929190611ef5565b505050565b61184084848461116a565b61184c848484846119b4565b61188b576040517f08c379a00000000000000000000000000000000000000000000000000000000081526004016118829061286d565b60405180910390fd5b50505050565b606060405180602001604052806000815250905090565b60606118b382610f5f565b6118f2576040517f08c379a00000000000000000000000000000000000000000000000000000000081526004016118e990612a4d565b60405180910390fd5b60006118fc611891565b9050600081511161191c5760405180602001604052806000815250611947565b8061192684611b4b565b604051602001611937929190612740565b6040516020818303038152906040525b915050919050565b505050565b505050565b6119638383611cf8565b61197060008484846119b4565b6119af576040517f08c379a00000000000000000000000000000000000000000000000000000000081526004016119a69061286d565b60405180910390fd5b505050565b60006119d58473ffffffffffffffffffffffffffffffffffffffff16611ed2565b15611b3e578373ffffffffffffffffffffffffffffffffffffffff1663150b7a026119fe610fcb565b8786866040518563ffffffff1660e01b8152600401611a2094939291906127e4565b602060405180830381600087803b158015611a3a57600080fd5b505af1925050508015611a6b57506040513d601f19601f82011682018060405250810190611a6891906122a1565b60015b611aee573d8060008114611a9b576040519150601f19603f3d011682016040523d82523d6000602084013e611aa0565b606091505b50600081511415611ae6576040517f08c379a0000000000000000000000000000000000000000000000000000000008152600401611add9061286d565b60405180910390fd5b805181602001fd5b63150b7a0260e01b7bffffffffffffffffffffffffffffffffffffffffffffffffffffffff1916817bffffffffffffffffffffffffffffffffffffffffffffffffffffffff191614915050611b43565b600190505b949350505050565b60606000821415611b93576040518060400160405280600181526020017f30000000000000000000000000000000000000000000000000000000000000008152509050611cf3565b600082905060005b60008214611bc5578080611bae90612dc0565b915050600a82611bbe9190612be8565b9150611b9b565b60008167ffffffffffffffff811115611c07577f4e487b7100000000000000000000000000000000000000000000000000000000600052604160045260246000fd5b6040519080825280601f01601f191660200182016040528015611c395781602001600182028036833780820191505090505b5090505b60008514611cec57600182611c529190612c73565b9150600a85611c619190612e09565b6030611c6d9190612b92565b60f81b818381518110611ca9577f4e487b7100000000000000000000000000000000000000000000000000000000600052603260045260246000fd5b60200101907effffffffffffffffffffffffffffffffffffffffffffffffffffffffffffff1916908160001a905350600a85611ce59190612be8565b9450611c3d565b8093505050505b919050565b600073ffffffffffffffffffffffffffffffffffffffff168273ffffffffffffffffffffffffffffffffffffffff161415611d68576040517f08c379a0000000000000000000000000000000000000000000000000000000008152600401611d5f906129cd565b60405180910390fd5b611d7181610f5f565b15611db1576040517f08c379a0000000000000000000000000000000000000000000000000000000008152600401611da8906128cd565b60405180910390fd5b611dbd6000838361194f565b6001600360008473ffffffffffffffffffffffffffffffffffffffff1673ffffffffffffffffffffffffffffffffffffffff1681526020019081526020016000206000828254611e0d9190612b92565b92505081905550816002600083815260200190815260200160002060006101000a81548173ffffffffffffffffffffffffffffffffffffffff021916908373ffffffffffffffffffffffffffffffffffffffff160217905550808273ffffffffffffffffffffffffffffffffffffffff16600073ffffffffffffffffffffffffffffffffffffffff167fddf252ad1be2c89b69c2b068fc378daa952ba7f163c4a11628f55a4df523b3ef60405160405180910390a4611ece60008383611954565b5050565b6000808273ffffffffffffffffffffffffffffffffffffffff163b119050919050565b828054611f0190612d5d565b90600052602060002090601f016020900481019282611f235760008555611f6a565b82601f10611f3c57805160ff1916838001178555611f6a565b82800160010185558215611f6a579182015b82811115611f69578251825591602001919060010190611f4e565b5b509050611f779190611f7b565b5090565b5b80821115611f94576000816000905550600101611f7c565b5090565b6000611fab611fa684612aed565b612ac8565b905082815260208101848484011115611fc357600080fd5b611fce848285612d1b565b509392505050565b6000611fe9611fe484612b1e565b612ac8565b90508281526020810184848401111561200157600080fd5b61200c848285612d1b565b509392505050565b60008135905061202381613516565b92915050565b6000813590506120388161352d565b92915050565b60008135905061204d81613544565b92915050565b60008151905061206281613544565b92915050565b600082601f83011261207957600080fd5b8135612089848260208601611f98565b91505092915050565b600082601f8301126120a357600080fd5b81356120b3848260208601611fd6565b91505092915050565b6000813590506120cb8161355b565b92915050565b6000602082840312156120e357600080fd5b60006120f184828501612014565b91505092915050565b6000806040838503121561210d57600080fd5b600061211b85828601612014565b925050602061212c85828601612014565b9150509250929050565b60008060006060848603121561214b57600080fd5b600061215986828701612014565b935050602061216a86828701612014565b925050604061217b868287016120bc565b9150509250925092565b6000806000806080858703121561219b57600080fd5b60006121a987828801612014565b94505060206121ba87828801612014565b93505060406121cb878288016120bc565b925050606085013567ffffffffffffffff8111156121e857600080fd5b6121f487828801612068565b91505092959194509250565b6000806040838503121561221357600080fd5b600061222185828601612014565b925050602061223285828601612029565b9150509250929050565b6000806040838503121561224f57600080fd5b600061225d85828601612014565b925050602061226e858286016120bc565b9150509250929050565b60006020828403121561228a57600080fd5b60006122988482850161203e565b91505092915050565b6000602082840312156122b357600080fd5b60006122c184828501612053565b91505092915050565b6000602082840312156122dc57600080fd5b600082013567ffffffffffffffff8111156122f657600080fd5b61230284828501612092565b91505092915050565b60006020828403121561231d57600080fd5b600061232b848285016120bc565b91505092915050565b61233d81612ca7565b82525050565b61234c81612cb9565b82525050565b600061235d82612b4f565b6123678185612b65565b9350612377818560208601612d2a565b61238081612ef6565b840191505092915050565b600061239682612b5a565b6123a08185612b76565b93506123b0818560208601612d2a565b6123b981612ef6565b840191505092915050565b60006123cf82612b5a565b6123d98185612b87565b93506123e9818560208601612d2a565b80840191505092915050565b6000612402600983612b87565b915061240d82612f07565b600982019050919050565b6000612425603283612b76565b915061243082612f30565b604082019050919050565b6000612448602683612b76565b915061245382612f7f565b604082019050919050565b600061246b602583612b76565b915061247682612fce565b604082019050919050565b600061248e601c83612b76565b91506124998261301d565b602082019050919050565b60006124b1602483612b76565b91506124bc82613046565b604082019050919050565b60006124d4601983612b76565b91506124df82613095565b602082019050919050565b60006124f7602c83612b76565b9150612502826130be565b604082019050919050565b600061251a600783612b87565b91506125258261310d565b600782019050919050565b600061253d603883612b76565b915061254882613136565b604082019050919050565b6000612560602a83612b76565b915061256b82613185565b604082019050919050565b6000612583602983612b76565b915061258e826131d4565b604082019050919050565b60006125a6602e83612b76565b91506125b182613223565b604082019050919050565b60006125c9600283612b87565b91506125d482613272565b600282019050919050565b60006125ec602083612b76565b91506125f78261329b565b602082019050919050565b600061260f603183612b76565b915061261a826132c4565b604082019050919050565b6000612632602c83612b76565b915061263d82613313565b604082019050919050565b6000612655602083612b76565b915061266082613362565b602082019050919050565b6000612678602f83612b76565b91506126838261338b565b604082019050919050565b600061269b604383612b87565b91506126a6826133da565b604382019050919050565b60006126be602183612b76565b91506126c98261344f565b604082019050919050565b60006126e1601d83612b87565b91506126ec8261349e565b601d82019050919050565b6000612704603183612b76565b915061270f826134c7565b604082019050919050565b61272381612d11565b82525050565b600061273582846123c4565b915081905092915050565b600061274c82856123c4565b915061275882846123c4565b91508190509392505050565b600061276f826123f5565b915061277a8261250d565b91506127858261268e565b915061279182846123c4565b915061279c826125bc565b915081905092915050565b60006127b2826126d4565b91506127be82846123c4565b915081905092915050565b60006020820190506127de6000830184612334565b92915050565b60006080820190506127f96000830187612334565b6128066020830186612334565b612813604083018561271a565b81810360608301526128258184612352565b905095945050505050565b60006020820190506128456000830184612343565b92915050565b60006020820190508181036000830152612865818461238b565b905092915050565b6000602082019050818103600083015261288681612418565b9050919050565b600060208201905081810360008301526128a68161243b565b9050919050565b600060208201905081810360008301526128c68161245e565b9050919050565b600060208201905081810360008301526128e681612481565b9050919050565b60006020820190508181036000830152612906816124a4565b9050919050565b60006020820190508181036000830152612926816124c7565b9050919050565b60006020820190508181036000830152612946816124ea565b9050919050565b6000602082019050818103600083015261296681612530565b9050919050565b6000602082019050818103600083015261298681612553565b9050919050565b600060208201905081810360008301526129a681612576565b9050919050565b600060208201905081810360008301526129c681612599565b9050919050565b600060208201905081810360008301526129e6816125df565b9050919050565b60006020820190508181036000830152612a0681612602565b9050919050565b60006020820190508181036000830152612a2681612625565b9050919050565b60006020820190508181036000830152612a4681612648565b9050919050565b60006020820190508181036000830152612a668161266b565b9050919050565b60006020820190508181036000830152612a86816126b1565b9050919050565b60006020820190508181036000830152612aa6816126f7565b9050919050565b6000602082019050612ac2600083018461271a565b92915050565b6000612ad2612ae3565b9050612ade8282612d8f565b919050565b6000604051905090565b600067ffffffffffffffff821115612b0857612b07612ec7565b5b612b1182612ef6565b9050602081019050919050565b600067ffffffffffffffff821115612b3957612b38612ec7565b5b612b4282612ef6565b9050602081019050919050565b600081519050919050565b600081519050919050565b600082825260208201905092915050565b600082825260208201905092915050565b600081905092915050565b6000612b9d82612d11565b9150612ba883612d11565b9250827fffffffffffffffffffffffffffffffffffffffffffffffffffffffffffffffff03821115612bdd57612bdc612e3a565b5b828201905092915050565b6000612bf382612d11565b9150612bfe83612d11565b925082612c0e57612c0d612e69565b5b828204905092915050565b6000612c2482612d11565b9150612c2f83612d11565b9250817fffffffffffffffffffffffffffffffffffffffffffffffffffffffffffffffff0483118215151615612c6857612c67612e3a565b5b828202905092915050565b6000612c7e82612d11565b9150612c8983612d11565b925082821015612c9c57612c9b612e3a565b5b828203905092915050565b6000612cb282612cf1565b9050919050565b60008115159050919050565b60007fffffffff0000000000000000000000000000000000000000000000000000000082169050919050565b600073ffffffffffffffffffffffffffffffffffffffff82169050919050565b6000819050919050565b82818337600083830152505050565b60005b83811015612d48578082015181840152602081019050612d2d565b83811115612d57576000848401525b50505050565b60006002820490506001821680612d7557607f821691505b60208210811415612d8957612d88612e98565b5b50919050565b612d9882612ef6565b810181811067ffffffffffffffff82111715612db757612db6612ec7565b5b80604052505050565b6000612dcb82612d11565b91507fffffffffffffffffffffffffffffffffffffffffffffffffffffffffffffffff821415612dfe57612dfd612e3a565b5b600182019050919050565b6000612e1482612d11565b9150612e1f83612d11565b925082612e2f57612e2e612e69565b5b828206905092915050565b7f4e487b7100000000000000000000000000000000000000000000000000000000600052601160045260246000fd5b7f4e487b7100000000000000000000000000000000000000000000000000000000600052601260045260246000fd5b7f4e487b7100000000000000000000000000000000000000000000000000000000600052602260045260246000fd5b7f4e487b7100000000000000000000000000000000000000000000000000000000600052604160045260246000fd5b6000601f19601f8301169050919050565b7f7b226e616d65223a220000000000000000000000000000000000000000000000600082015250565b7f4552433732313a207472616e7366657220746f206e6f6e20455243373231526560008201527f63656976657220696d706c656d656e7465720000000000000000000000000000602082015250565b7f4f776e61626c653a206e6577206f776e657220697320746865207a65726f206160008201527f6464726573730000000000000000000000000000000000000000000000000000602082015250565b7f4552433732313a207472616e736665722066726f6d20696e636f72726563742060008201527f6f776e6572000000000000000000000000000000000000000000000000000000602082015250565b7f4552433732313a20746f6b656e20616c7265616479206d696e74656400000000600082015250565b7f4552433732313a207472616e7366657220746f20746865207a65726f2061646460008201527f7265737300000000000000000000000000000000000000000000000000000000602082015250565b7f4552433732313a20617070726f766520746f2063616c6c657200000000000000600082015250565b7f4552433732313a206f70657261746f7220717565727920666f72206e6f6e657860008201527f697374656e7420746f6b656e0000000000000000000000000000000000000000602082015250565b7f535647204e465400000000000000000000000000000000000000000000000000600082015250565b7f4552433732313a20617070726f76652063616c6c6572206973206e6f74206f7760008201527f6e6572206e6f7220617070726f76656420666f7220616c6c0000000000000000602082015250565b7f4552433732313a2062616c616e636520717565727920666f7220746865207a6560008201527f726f206164647265737300000000000000000000000000000000000000000000602082015250565b7f4552433732313a206f776e657220717565727920666f72206e6f6e657869737460008201527f656e7420746f6b656e0000000000000000000000000000000000000000000000602082015250565b7f45524337323155524953746f726167653a2055524920736574206f66206e6f6e60008201527f6578697374656e7420746f6b656e000000000000000000000000000000000000602082015250565b7f227d000000000000000000000000000000000000000000000000000000000000600082015250565b7f4552433732313a206d696e7420746f20746865207a65726f2061646472657373600082015250565b7f45524337323155524953746f726167653a2055524920717565727920666f722060008201527f6e6f6e6578697374656e7420746f6b656e000000000000000000000000000000602082015250565b7f4552433732313a20617070726f76656420717565727920666f72206e6f6e657860008201527f697374656e7420746f6b656e0000000000000000000000000000000000000000602082015250565b7f4f776e61626c653a2063616c6c6572206973206e6f7420746865206f776e6572600082015250565b7f4552433732314d657461646174613a2055524920717565727920666f72206e6f60008201527f6e6578697374656e7420746f6b656e0000000000000000000000000000000000602082015250565b7f222c20226465736372697074696f6e223a22416e204e4654206261736564206f60008201527f6e2053564721222c202261747472696275746573223a22222c2022696d61676560208201527f223a220000000000000000000000000000000000000000000000000000000000604082015250565b7f4552433732313a20617070726f76616c20746f2063757272656e74206f776e6560008201527f7200000000000000000000000000000000000000000000000000000000000000602082015250565b7f646174613a6170706c69636174696f6e2f6a736f6e3b6261736536342c000000600082015250565b7f4552433732313a207472616e736665722063616c6c6572206973206e6f74206f60008201527f776e6572206e6f7220617070726f766564000000000000000000000000000000602082015250565b61351f81612ca7565b811461352a57600080fd5b50565b61353681612cb9565b811461354157600080fd5b50565b61354d81612cc5565b811461355857600080fd5b50565b61356481612d11565b811461356f57600080fd5b5056fe4142434445464748494a4b4c4d4e4f505152535455565758595a6162636465666768696a6b6c6d6e6f707172737475767778797a303132333435363738392b2fa26469706673582212201d6a52d138daff83eb87842452c632fa67bb09e5bb229ad9b5521fb19d70f11664736f6c63430008040033",
  "devdoc": {
    "kind": "dev",
    "methods": {
      "approve(address,uint256)": {
        "details": "See {IERC721-approve}."
      },
      "balanceOf(address)": {
        "details": "See {IERC721-balanceOf}."
      },
      "getApproved(uint256)": {
        "details": "See {IERC721-getApproved}."
      },
      "isApprovedForAll(address,address)": {
        "details": "See {IERC721-isApprovedForAll}."
      },
      "name()": {
        "details": "See {IERC721Metadata-name}."
      },
      "owner()": {
        "details": "Returns the address of the current owner."
      },
      "ownerOf(uint256)": {
        "details": "See {IERC721-ownerOf}."
      },
      "renounceOwnership()": {
        "details": "Leaves the contract without owner. It will not be possible to call `onlyOwner` functions anymore. Can only be called by the current owner. NOTE: Renouncing ownership will leave the contract without an owner, thereby removing any functionality that is only available to the owner."
      },
      "safeTransferFrom(address,address,uint256)": {
        "details": "See {IERC721-safeTransferFrom}."
      },
      "safeTransferFrom(address,address,uint256,bytes)": {
        "details": "See {IERC721-safeTransferFrom}."
      },
      "setApprovalForAll(address,bool)": {
        "details": "See {IERC721-setApprovalForAll}."
      },
      "supportsInterface(bytes4)": {
        "details": "See {IERC165-supportsInterface}."
      },
      "symbol()": {
        "details": "See {IERC721Metadata-symbol}."
      },
      "tokenURI(uint256)": {
        "details": "See {IERC721Metadata-tokenURI}."
      },
      "transferFrom(address,address,uint256)": {
        "details": "See {IERC721-transferFrom}."
      },
      "transferOwnership(address)": {
        "details": "Transfers ownership of the contract to a new account (`newOwner`). Can only be called by the current owner."
      }
    },
    "version": 1
  },
  "userdoc": {
    "kind": "user",
    "methods": {},
    "version": 1
  },
  "storageLayout": {
    "storage": [
      {
        "astId": 130,
        "contract": "contracts/SVGNFT.sol:SVGNFT",
        "label": "_name",
        "offset": 0,
        "slot": "0",
        "type": "t_string_storage"
      },
      {
        "astId": 132,
        "contract": "contracts/SVGNFT.sol:SVGNFT",
        "label": "_symbol",
        "offset": 0,
        "slot": "1",
        "type": "t_string_storage"
      },
      {
        "astId": 136,
        "contract": "contracts/SVGNFT.sol:SVGNFT",
        "label": "_owners",
        "offset": 0,
        "slot": "2",
        "type": "t_mapping(t_uint256,t_address)"
      },
      {
        "astId": 140,
        "contract": "contracts/SVGNFT.sol:SVGNFT",
        "label": "_balances",
        "offset": 0,
        "slot": "3",
        "type": "t_mapping(t_address,t_uint256)"
      },
      {
        "astId": 144,
        "contract": "contracts/SVGNFT.sol:SVGNFT",
        "label": "_tokenApprovals",
        "offset": 0,
        "slot": "4",
        "type": "t_mapping(t_uint256,t_address)"
      },
      {
        "astId": 150,
        "contract": "contracts/SVGNFT.sol:SVGNFT",
        "label": "_operatorApprovals",
        "offset": 0,
        "slot": "5",
        "type": "t_mapping(t_address,t_mapping(t_address,t_bool))"
      },
      {
        "astId": 1117,
        "contract": "contracts/SVGNFT.sol:SVGNFT",
        "label": "_tokenURIs",
        "offset": 0,
        "slot": "6",
        "type": "t_mapping(t_uint256,t_string_storage)"
      },
      {
        "astId": 7,
        "contract": "contracts/SVGNFT.sol:SVGNFT",
        "label": "_owner",
        "offset": 0,
        "slot": "7",
        "type": "t_address"
      },
      {
        "astId": 1941,
        "contract": "contracts/SVGNFT.sol:SVGNFT",
        "label": "tokenCounter",
        "offset": 0,
        "slot": "8",
        "type": "t_uint256"
      }
    ],
    "types": {
      "t_address": {
        "encoding": "inplace",
        "label": "address",
        "numberOfBytes": "20"
      },
      "t_bool": {
        "encoding": "inplace",
        "label": "bool",
        "numberOfBytes": "1"
      },
      "t_mapping(t_address,t_bool)": {
        "encoding": "mapping",
        "key": "t_address",
        "label": "mapping(address => bool)",
        "numberOfBytes": "32",
        "value": "t_bool"
      },
      "t_mapping(t_address,t_mapping(t_address,t_bool))": {
        "encoding": "mapping",
        "key": "t_address",
        "label": "mapping(address => mapping(address => bool))",
        "numberOfBytes": "32",
        "value": "t_mapping(t_address,t_bool)"
      },
      "t_mapping(t_address,t_uint256)": {
        "encoding": "mapping",
        "key": "t_address",
        "label": "mapping(address => uint256)",
        "numberOfBytes": "32",
        "value": "t_uint256"
      },
      "t_mapping(t_uint256,t_address)": {
        "encoding": "mapping",
        "key": "t_uint256",
        "label": "mapping(uint256 => address)",
        "numberOfBytes": "32",
        "value": "t_address"
      },
      "t_mapping(t_uint256,t_string_storage)": {
        "encoding": "mapping",
        "key": "t_uint256",
        "label": "mapping(uint256 => string)",
        "numberOfBytes": "32",
        "value": "t_string_storage"
      },
      "t_string_storage": {
        "encoding": "bytes",
        "label": "string",
        "numberOfBytes": "32"
      },
      "t_uint256": {
        "encoding": "inplace",
        "label": "uint256",
        "numberOfBytes": "32"
      }
    }
  }
}